{"contracts/AssetTokenFactory.sol":{"AssetTokenFactory":{"abi":[{"inputs":[{"internalType":"address","name":"admin_","type":"address"}],"stateMutability":"nonpayable","type":"constructor"},{"anonymous":false,"inputs":[{"indexed":true,"internalType":"address","name":"tokenAddress","type":"address"},{"indexed":false,"internalType":"string","name":"name","type":"string"},{"indexed":false,"internalType":"string","name":"symbol","type":"string"},{"indexed":false,"internalType":"string","name":"assetType","type":"string"},{"indexed":true,"internalType":"address","name":"owner","type":"address"}],"name":"AssetTokenCreated","type":"event"},{"anonymous":false,"inputs":[{"indexed":true,"internalType":"bytes32","name":"role","type":"bytes32"},{"indexed":true,"internalType":"bytes32","name":"previousAdminRole","type":"bytes32"},{"indexed":true,"internalType":"bytes32","name":"newAdminRole","type":"bytes32"}],"name":"RoleAdminChanged","type":"event"},{"anonymous":false,"inputs":[{"indexed":true,"internalType":"bytes32","name":"role","type":"bytes32"},{"indexed":true,"internalType":"address","name":"account","type":"address"},{"indexed":true,"internalType":"address","name":"sender","type":"address"}],"name":"RoleGranted","type":"event"},{"anonymous":false,"inputs":[{"indexed":true,"internalType":"bytes32","name":"role","type":"bytes32"},{"indexed":true,"internalType":"address","name":"account","type":"address"},{"indexed":true,"internalType":"address","name":"sender","type":"address"}],"name":"RoleRevoked","type":"event"},{"inputs":[],"name":"ADMIN_ROLE","outputs":[{"internalType":"bytes32","name":"","type":"bytes32"}],"stateMutability":"view","type":"function"},{"inputs":[],"name":"DEFAULT_ADMIN_ROLE","outputs":[{"internalType":"bytes32","name":"","type":"bytes32"}],"stateMutability":"view","type":"function"},{"inputs":[{"internalType":"address","name":"tokenAddress","type":"address"},{"internalType":"address","name":"user","type":"address"}],"name":"approvePledge","outputs":[],"stateMutability":"nonpayable","type":"function"},{"inputs":[{"internalType":"address","name":"","type":"address"}],"name":"assetTokens","outputs":[{"internalType":"bool","name":"","type":"bool"}],"stateMutability":"view","type":"function"},{"inputs":[{"internalType":"uint256","name":"","type":"uint256"}],"name":"assetTokensList","outputs":[{"internalType":"address","name":"","type":"address"}],"stateMutability":"view","type":"function"},{"inputs":[{"internalType":"string","name":"name","type":"string"},{"internalType":"string","name":"symbol","type":"string"},{"internalType":"string","name":"assetType","type":"string"},{"internalType":"string","name":"assetDescription","type":"string"},{"internalType":"address","name":"user","type":"address"}],"name":"createAssetToken","outputs":[{"internalType":"address","name":"","type":"address"}],"stateMutability":"nonpayable","type":"function"},{"inputs":[],"name":"getAssetTokensCount","outputs":[{"internalType":"uint256","name":"","type":"uint256"}],"stateMutability":"view","type":"function"},{"inputs":[{"internalType":"bytes32","name":"role","type":"bytes32"}],"name":"getRoleAdmin","outputs":[{"internalType":"bytes32","name":"","type":"bytes32"}],"stateMutability":"view","type":"function"},{"inputs":[{"internalType":"address","name":"user","type":"address"}],"name":"getUserAssets","outputs":[{"internalType":"address[]","name":"","type":"address[]"}],"stateMutability":"view","type":"function"},{"inputs":[{"internalType":"address","name":"user","type":"address"}],"name":"getUserAssetsCount","outputs":[{"internalType":"uint256","name":"","type":"uint256"}],"stateMutability":"view","type":"function"},{"inputs":[{"internalType":"bytes32","name":"role","type":"bytes32"},{"internalType":"address","name":"account","type":"address"}],"name":"grantRole","outputs":[],"stateMutability":"nonpayable","type":"function"},{"inputs":[{"internalType":"bytes32","name":"role","type":"bytes32"},{"internalType":"address","name":"account","type":"address"}],"name":"hasRole","outputs":[{"internalType":"bool","name":"","type":"bool"}],"stateMutability":"view","type":"function"},{"inputs":[{"internalType":"bytes32","name":"role","type":"bytes32"},{"internalType":"address","name":"account","type":"address"}],"name":"renounceRole","outputs":[],"stateMutability":"nonpayable","type":"function"},{"inputs":[{"internalType":"bytes32","name":"role","type":"bytes32"},{"internalType":"address","name":"account","type":"address"}],"name":"revokeRole","outputs":[],"stateMutability":"nonpayable","type":"function"},{"inputs":[{"internalType":"bytes4","name":"interfaceId","type":"bytes4"}],"name":"supportsInterface","outputs":[{"internalType":"bool","name":"","type":"bool"}],"stateMutability":"view","type":"function"},{"inputs":[{"internalType":"address","name":"","type":"address"},{"internalType":"uint256","name":"","type":"uint256"}],"name":"userAssets","outputs":[{"internalType":"address","name":"","type":"address"}],"stateMutability":"view","type":"function"}],"evm":{"bytecode":{"linkReferences":{},"object":"608060405234801561001057600080fd5b5060405162003329380380620033298339810160408190526100319161010f565b60018055610040600082610070565b61006a7fa49807205ce4d355092ef5a8a18f56e8913cf4a201fbe287825b095693c2177582610070565b5061013f565b6000828152602081815260408083206001600160a01b038516845290915290205460ff1661010b576000828152602081815260408083206001600160a01b03851684529091529020805460ff191660011790556100ca3390565b6001600160a01b0316816001600160a01b0316837f2f8788117e7eff1d82e926ec794901d17c78024a50270940304540a733656f0d60405160405180910390a45b5050565b60006020828403121561012157600080fd5b81516001600160a01b038116811461013857600080fd5b9392505050565b6131da806200014f6000396000f3fe60806040523480156200001157600080fd5b5060043610620001155760003560e01c806375b238fc11620000a3578063a217fddf116200006e578063a217fddf1462000298578063c769c8fc14620002a1578063d3bafd0414620002cd578063d547741f14620002e457600080fd5b806375b238fc146200021c578063765ff061146200024457806391d14854146200026a578063a0329830146200028157600080fd5b80632f2ff15d11620000e45780632f2ff15d146200019857806336568abe14620001af5780634c36dd5a14620001c65780636a8a69aa14620001ec57600080fd5b806301ffc9a7146200011a5780630ba00e221462000146578063234b07e51462000159578063248a9ca31462000172575b600080fd5b620001316200012b36600462000b73565b620002fb565b60405190151581526020015b60405180910390f35b6003545b6040519081526020016200013d565b620001706200016a36600462000bbc565b62000333565b005b6200014a6200018336600462000bf4565b60009081526020819052604090206001015490565b62000170620001a936600462000c0e565b62000426565b62000170620001c036600462000c0e565b62000454565b62000131620001d736600462000c34565b60026020526000908152604090205460ff1681565b62000203620001fd36600462000c52565b620004d6565b6040516001600160a01b0390911681526020016200013d565b6200014a7fa49807205ce4d355092ef5a8a18f56e8913cf4a201fbe287825b095693c2177581565b6200025b6200025536600462000c34565b6200050f565b6040516200013d919062000c7f565b620001316200027b36600462000c0e565b62000587565b620002036200029236600462000d79565b620005b0565b6200014a600081565b6200014a620002b236600462000c34565b6001600160a01b031660009081526004602052604090205490565b62000203620002de36600462000bf4565b6200077f565b62000170620002f536600462000c0e565b620007aa565b60006001600160e01b03198216637965db0b60e01b14806200032d57506301ffc9a760e01b6001600160e01b03198316145b92915050565b7fa49807205ce4d355092ef5a8a18f56e8913cf4a201fbe287825b095693c217756200035f81620007d3565b6001600160a01b03831660009081526002602052604090205460ff16620003c45760405162461bcd60e51b8152602060048201526014602482015273151bdad95b88191bd95cc81b9bdd08195e1a5cdd60621b60448201526064015b60405180910390fd5b60405163892d86cd60e01b81526001600160a01b03838116600483015284169063892d86cd90602401600060405180830381600087803b1580156200040857600080fd5b505af11580156200041d573d6000803e3d6000fd5b50505050505050565b6000828152602081905260409020600101546200044381620007d3565b6200044f8383620007e2565b505050565b6001600160a01b0381163314620004c65760405162461bcd60e51b815260206004820152602f60248201527f416363657373436f6e74726f6c3a2063616e206f6e6c792072656e6f756e636560448201526e103937b632b9903337b91039b2b63360891b6064820152608401620003bb565b620004d282826200086a565b5050565b60046020528160005260406000208181548110620004f357600080fd5b6000918252602090912001546001600160a01b03169150829050565b6001600160a01b0381166000908152600460209081526040918290208054835181840281018401909452808452606093928301828280156200057b57602002820191906000526020600020905b81546001600160a01b031681526001909101906020018083116200055c575b50505050509050919050565b6000918252602082815260408084206001600160a01b0393909316845291905290205460ff1690565b60007fa49807205ce4d355092ef5a8a18f56e8913cf4a201fbe287825b095693c21775620005de81620007d3565b620005e8620008d2565b60008787338888604051620005fd9062000b65565b6200060d95949392919062000e9a565b604051809103906000f0801580156200062a573d6000803e3d6000fd5b506001600160a01b038082166000818152600260209081526040808320805460ff19166001908117909155600380548083019091557fc2575a0e9e593c00f959f8c92f12db2869c3395a3b0502d05e2516446f71f85b0180546001600160a01b03199081168717909155958b16845260048084528285208054928301815585529290932090920180549094168317909355516397bbb76160e01b8152929350839290916397bbb76191620006e39189918c910162000f0a565b600060405180830381600087803b158015620006fe57600080fd5b505af115801562000713573d6000803e3d6000fd5b50505050846001600160a01b0316816001600160a01b03167f96230712cf9274362abf6d06bfeee0f7d37850117219996a813e8b73dbb4e5908b8b8b604051620007609392919062000f38565b60405180910390a39250506200077560018055565b5095945050505050565b600381815481106200079057600080fd5b6000918252602090912001546001600160a01b0316905081565b600082815260208190526040902060010154620007c781620007d3565b6200044f83836200086a565b620007df81336200092d565b50565b620007ee828262000587565b620004d2576000828152602081815260408083206001600160a01b03851684529091529020805460ff19166001179055620008263390565b6001600160a01b0316816001600160a01b0316837f2f8788117e7eff1d82e926ec794901d17c78024a50270940304540a733656f0d60405160405180910390a45050565b62000876828262000587565b15620004d2576000828152602081815260408083206001600160a01b0385168085529252808320805460ff1916905551339285917ff6391f5c32d9c69d2a47ea670b442974b53935d1edc7fd64eb21e047a839171b9190a45050565b600260015403620009265760405162461bcd60e51b815260206004820152601f60248201527f5265656e7472616e637947756172643a207265656e7472616e742063616c6c006044820152606401620003bb565b6002600155565b62000939828262000587565b620004d257620009498162000991565b62000956836020620009a4565b6040516020016200096992919062000f81565b60408051601f198184030181529082905262461bcd60e51b8252620003bb9160040162000ffa565b60606200032d6001600160a01b03831660145b60606000620009b583600262001025565b620009c29060026200103f565b67ffffffffffffffff811115620009dd57620009dd62000cce565b6040519080825280601f01601f19166020018201604052801562000a08576020820181803683370190505b509050600360fc1b8160008151811062000a265762000a2662001055565b60200101906001600160f81b031916908160001a905350600f60fb1b8160018151811062000a585762000a5862001055565b60200101906001600160f81b031916908160001a905350600062000a7e84600262001025565b62000a8b9060016200103f565b90505b600181111562000b0d576f181899199a1a9b1b9c1cb0b131b232b360811b85600f166010811062000ac35762000ac362001055565b1a60f81b82828151811062000adc5762000adc62001055565b60200101906001600160f81b031916908160001a90535060049490941c9362000b05816200106b565b905062000a8e565b50831562000b5e5760405162461bcd60e51b815260206004820181905260248201527f537472696e67733a20686578206c656e67746820696e73756666696369656e746044820152606401620003bb565b9392505050565b61211f806200108683390190565b60006020828403121562000b8657600080fd5b81356001600160e01b03198116811462000b5e57600080fd5b80356001600160a01b038116811462000bb757600080fd5b919050565b6000806040838503121562000bd057600080fd5b62000bdb8362000b9f565b915062000beb6020840162000b9f565b90509250929050565b60006020828403121562000c0757600080fd5b5035919050565b6000806040838503121562000c2257600080fd5b8235915062000beb6020840162000b9f565b60006020828403121562000c4757600080fd5b62000b5e8262000b9f565b6000806040838503121562000c6657600080fd5b62000c718362000b9f565b946020939093013593505050565b6020808252825182820181905260009190848201906040850190845b8181101562000cc25783516001600160a01b03168352928401929184019160010162000c9b565b50909695505050505050565b634e487b7160e01b600052604160045260246000fd5b600082601f83011262000cf657600080fd5b813567ffffffffffffffff8082111562000d145762000d1462000cce565b604051601f8301601f19908116603f0116810190828211818310171562000d3f5762000d3f62000cce565b8160405283815286602085880101111562000d5957600080fd5b836020870160208301376000602085830101528094505050505092915050565b600080600080600060a0868803121562000d9257600080fd5b853567ffffffffffffffff8082111562000dab57600080fd5b62000db989838a0162000ce4565b9650602088013591508082111562000dd057600080fd5b62000dde89838a0162000ce4565b9550604088013591508082111562000df557600080fd5b62000e0389838a0162000ce4565b9450606088013591508082111562000e1a57600080fd5b5062000e298882890162000ce4565b92505062000e3a6080870162000b9f565b90509295509295909350565b60005b8381101562000e6357818101518382015260200162000e49565b50506000910152565b6000815180845262000e8681602086016020860162000e46565b601f01601f19169290920160200192915050565b60a08152600062000eaf60a083018862000e6c565b828103602084015262000ec3818862000e6c565b6001600160a01b03871660408501528381036060850152905062000ee8818662000e6c565b9050828103608084015262000efe818562000e6c565b98975050505050505050565b6001600160a01b038316815260406020820181905260009062000f309083018462000e6c565b949350505050565b60608152600062000f4d606083018662000e6c565b828103602084015262000f61818662000e6c565b9050828103604084015262000f77818562000e6c565b9695505050505050565b7f416363657373436f6e74726f6c3a206163636f756e742000000000000000000081526000835162000fbb81601785016020880162000e46565b7001034b99036b4b9b9b4b733903937b6329607d1b601791840191820152835162000fee81602884016020880162000e46565b01602801949350505050565b60208152600062000b5e602083018462000e6c565b634e487b7160e01b600052601160045260246000fd5b80820281158282048414176200032d576200032d6200100f565b808201808211156200032d576200032d6200100f565b634e487b7160e01b600052603260045260246000fd5b6000816200107d576200107d6200100f565b50600019019056fe60806040523480156200001157600080fd5b506040516200211f3803806200211f833981016040819052620000349162000253565b84846003620000448382620003bd565b506004620000538282620003bd565b505060016006555062000068600084620000e9565b620000947fa49807205ce4d355092ef5a8a18f56e8913cf4a201fbe287825b095693c2177584620000e9565b620000c07f9f2df0fed2c77648de5860a4cc508cd0818c85b8b8a1ab4ceeef8d981c8956a684620000e9565b6007620000ce8382620003bd565b506008620000dd8282620003bd565b50505050505062000489565b60008281526005602090815260408083206001600160a01b038516845290915290205460ff166200018a5760008281526005602090815260408083206001600160a01b03851684529091529020805460ff19166001179055620001493390565b6001600160a01b0316816001600160a01b0316837f2f8788117e7eff1d82e926ec794901d17c78024a50270940304540a733656f0d60405160405180910390a45b5050565b634e487b7160e01b600052604160045260246000fd5b600082601f830112620001b657600080fd5b81516001600160401b0380821115620001d357620001d36200018e565b604051601f8301601f19908116603f01168101908282118183101715620001fe57620001fe6200018e565b816040528381526020925086838588010111156200021b57600080fd5b600091505b838210156200023f578582018301518183018401529082019062000220565b600093810190920192909252949350505050565b600080600080600060a086880312156200026c57600080fd5b85516001600160401b03808211156200028457600080fd5b6200029289838a01620001a4565b96506020880151915080821115620002a957600080fd5b620002b789838a01620001a4565b604089015190965091506001600160a01b0382168214620002d757600080fd5b606088015191945080821115620002ed57600080fd5b620002fb89838a01620001a4565b935060808801519150808211156200031257600080fd5b506200032188828901620001a4565b9150509295509295909350565b600181811c908216806200034357607f821691505b6020821081036200036457634e487b7160e01b600052602260045260246000fd5b50919050565b601f821115620003b857600081815260208120601f850160051c81016020861015620003935750805b601f850160051c820191505b81811015620003b4578281556001016200039f565b5050505b505050565b81516001600160401b03811115620003d957620003d96200018e565b620003f181620003ea84546200032e565b846200036a565b602080601f831160018114620004295760008415620004105750858301515b600019600386901b1c1916600185901b178555620003b4565b600085815260208120601f198616915b828110156200045a5788860151825594840194600190910190840162000439565b5085821015620004795787850151600019600388901b60f8161c191681555b5050505050600190811b01905550565b611c8680620004996000396000f3fe608060405234801561001057600080fd5b50600436106101fb5760003560e01c806370a082311161011a57806395d89b41116100ad578063a9059cbb1161007c578063a9059cbb14610487578063d53913931461049a578063d547741f146104c1578063dd62ed3e146104d4578063f66a1b71146104e757600080fd5b806395d89b411461045157806397bbb76114610459578063a217fddf1461046c578063a457c2d71461047457600080fd5b8063847466be116100e9578063847466be146103d7578063892d86cd1461042357806391d1485414610436578063938626c21461044957600080fd5b806370a082311461036657806375b238fc1461038f57806376e7db5d146103a457806379cc6790146103c457600080fd5b80632970fdfa11610192578063395093511161016157806339509351146103255780633fe3347a1461033857806340c10f191461034057806342966c681461035357600080fd5b80632970fdfa146102dd5780632f2ff15d146102f0578063313ce5671461030357806336568abe1461031257600080fd5b8063118ff3dc116101ce578063118ff3dc1461026557806318160ddd1461029557806323b872dd146102a7578063248a9ca3146102ba57600080fd5b806301ffc9a71461020057806306fdde0314610228578063095ea7b31461023d5780630d1118ce14610250575b600080fd5b61021361020e366004611700565b6104fa565b60405190151581526020015b60405180910390f35b610230610531565b60405161021f919061177a565b61021361024b3660046117a9565b6105c3565b61026361025e3660046117a9565b6105db565b005b6102886102733660046117d3565b600b6020526000908152604090205460ff1681565b60405161021f9190611804565b6002545b60405190815260200161021f565b6102136102b536600461182c565b6106c1565b6102996102c8366004611868565b60009081526005602052604090206001015490565b6102636102eb366004611924565b6106e5565b6102636102fe366004611972565b6107cc565b6040516012815260200161021f565b610263610320366004611972565b6107f1565b6102136103333660046117a9565b61086f565b610230610891565b61026361034e3660046117a9565b61091f565b610263610361366004611868565b610989565b6102996103743660046117d3565b6001600160a01b031660009081526020819052604090205490565b610299600080516020611c3183398151915281565b6102996103b23660046117d3565b600a6020526000908152604090205481565b6102636103d23660046117a9565b610996565b61040b6103e5366004611995565b80516020818301810180516009825292820191909301209152546001600160a01b031681565b6040516001600160a01b03909116815260200161021f565b6102636104313660046117d3565b6109ab565b610213610444366004611972565b610b71565b610230610b9c565b610230610ba9565b6102636104673660046119d2565b610bb8565b610299600081565b6102136104823660046117a9565b610ca4565b6102136104953660046117a9565b610d1f565b6102997f9f2df0fed2c77648de5860a4cc508cd0818c85b8b8a1ab4ceeef8d981c8956a681565b6102636104cf366004611972565b610d2d565b6102996104e2366004611a20565b610d52565b6102996104f5366004611995565b610d7d565b60006001600160e01b03198216637965db0b60e01b148061052b57506301ffc9a760e01b6001600160e01b03198316145b92915050565b60606003805461054090611a4a565b80601f016020809104026020016040519081016040528092919081815260200182805461056c90611a4a565b80156105b95780601f1061058e576101008083540402835291602001916105b9565b820191906000526020600020905b81548152906001019060200180831161059c57829003601f168201915b5050505050905090565b6000336105d1818585610e6f565b5060019392505050565b600080516020611c318339815191526105f381610f93565b6105fb610f9d565b8161061b846001600160a01b031660009081526020819052604090205490565b10156106655760405162461bcd60e51b8152602060048201526014602482015273496e73756666696369656e742062616c616e636560601b60448201526064015b60405180910390fd5b61066f8383610ff6565b826001600160a01b03167ffd38818f5291bf0bb3a2a48aadc06ba8757865d1dabd804585338aab3009dcb6836040516106aa91815260200190565b60405180910390a26106bc6001600655565b505050565b6000336106cf858285611128565b6106da8585856111a2565b506001949350505050565b600080516020611c318339815191526106fd81610f93565b6001600160a01b03821661074c5760405162461bcd60e51b8152602060048201526016602482015275496e76616c6964206f7261636c65206164647265737360501b604482015260640161065c565b8160098460405161075d9190611a84565b90815260405190819003602001812080546001600160a01b039384166001600160a01b031990911617905590831690610797908590611a84565b604051908190038120907f967dce4bd9f1ee4acd36a0df26aa5e6f63729594fe418b495116e30465f39fb090600090a3505050565b6000828152600560205260409020600101546107e781610f93565b6106bc8383611346565b6001600160a01b03811633146108615760405162461bcd60e51b815260206004820152602f60248201527f416363657373436f6e74726f6c3a2063616e206f6e6c792072656e6f756e636560448201526e103937b632b9903337b91039b2b63360891b606482015260840161065c565b61086b82826113cc565b5050565b6000336105d18185856108828383610d52565b61088c9190611ab6565b610e6f565b6007805461089e90611a4a565b80601f01602080910402602001604051908101604052809291908181526020018280546108ca90611a4a565b80156109175780601f106108ec57610100808354040283529160200191610917565b820191906000526020600020905b8154815290600101906020018083116108fa57829003601f168201915b505050505081565b600080516020611c3183398151915261093781610f93565b6109418383611433565b826001600160a01b03167f3f2c9d57c068687834f0de942a9babb9e5acab57d516d3480a3c16ee165a42738360405161097c91815260200190565b60405180910390a2505050565b6109933382610ff6565b50565b6109a1823383611128565b61086b8282610ff6565b600080516020611c318339815191526109c381610f93565b6109cb610f9d565b6001600160a01b0382166000908152600b602052604081205460ff1660028111156109f8576109f86117ee565b14610a3a5760405162461bcd60e51b8152602060048201526012602482015271506c65646765206e6f742070656e64696e6760701b604482015260640161065c565b6001600160a01b0382166000908152600a6020526040812054610a6590670de0b6b3a7640000611ac9565b905060008111610aa95760405162461bcd60e51b815260206004820152600f60248201526e139bdd1a1a5b99c81d1bc81b5a5b9d608a1b604482015260640161065c565b6001600160a01b0383166000908152600b60209081526040808320805460ff19166001179055600a909152812055610ae18382611433565b826001600160a01b03167f6f91d59d667773922f9bb90ddd04cc0de7a8732ecd544057caebd05a0edf349a6001604051610b1b9190611804565b60405180910390a2826001600160a01b03167f3f2c9d57c068687834f0de942a9babb9e5acab57d516d3480a3c16ee165a427382604051610b5e91815260200190565b60405180910390a25061086b6001600655565b60009182526005602090815260408084206001600160a01b0393909316845291905290205460ff1690565b6008805461089e90611a4a565b60606004805461054090611a4a565b600080516020611c31833981519152610bd081610f93565b6000610bdb83610d7d565b905060008113610c225760405162461bcd60e51b8152602060048201526012602482015271496e76616c6964206c69766520707269636560701b604482015260640161065c565b6000610c326305f5e10083611ae0565b6001600160a01b0386166000818152600a60209081526040808320859055600b90915290819020805460ff1916905551919250907f0e8e63e19af45bef870f39c8c03c00c46a25eb15d530b4cda64442d25643e8d390610c959087908590611b02565b60405180910390a25050505050565b60003381610cb28286610d52565b905083811015610d125760405162461bcd60e51b815260206004820152602560248201527f45524332303a2064656372656173656420616c6c6f77616e63652062656c6f77604482015264207a65726f60d81b606482015260840161065c565b6106da8286868403610e6f565b6000336105d18185856111a2565b600082815260056020526040902060010154610d4881610f93565b6106bc83836113cc565b6001600160a01b03918216600090815260016020908152604080832093909416825291909152205490565b600080600983604051610d909190611a84565b908152604051908190036020019020546001600160a01b0316905080610df85760405162461bcd60e51b815260206004820152601d60248201527f4f7261636c65206e6f742073657420666f722061737365742074797065000000604482015260640161065c565b60008190506000816001600160a01b031663feaf968c6040518163ffffffff1660e01b815260040160a060405180830381865afa158015610e3d573d6000803e3d6000fd5b505050506040513d601f19601f82011682018060405250810190610e619190611b3e565b509198975050505050505050565b6001600160a01b038316610ed15760405162461bcd60e51b8152602060048201526024808201527f45524332303a20617070726f76652066726f6d20746865207a65726f206164646044820152637265737360e01b606482015260840161065c565b6001600160a01b038216610f325760405162461bcd60e51b815260206004820152602260248201527f45524332303a20617070726f766520746f20746865207a65726f206164647265604482015261737360f01b606482015260840161065c565b6001600160a01b0383811660008181526001602090815260408083209487168084529482529182902085905590518481527f8c5be1e5ebec7d5bd14f71427d1e84f3dd0314c0f7b2291e5b200ac8c7c3b925910160405180910390a3505050565b61099381336114f2565b600260065403610fef5760405162461bcd60e51b815260206004820152601f60248201527f5265656e7472616e637947756172643a207265656e7472616e742063616c6c00604482015260640161065c565b6002600655565b6001600160a01b0382166110565760405162461bcd60e51b815260206004820152602160248201527f45524332303a206275726e2066726f6d20746865207a65726f206164647265736044820152607360f81b606482015260840161065c565b6001600160a01b038216600090815260208190526040902054818110156110ca5760405162461bcd60e51b815260206004820152602260248201527f45524332303a206275726e20616d6f756e7420657863656564732062616c616e604482015261636560f01b606482015260840161065c565b6001600160a01b0383166000818152602081815260408083208686039055600280548790039055518581529192917fddf252ad1be2c89b69c2b068fc378daa952ba7f163c4a11628f55a4df523b3ef910160405180910390a3505050565b60006111348484610d52565b9050600019811461119c578181101561118f5760405162461bcd60e51b815260206004820152601d60248201527f45524332303a20696e73756666696369656e7420616c6c6f77616e6365000000604482015260640161065c565b61119c8484848403610e6f565b50505050565b6001600160a01b0383166112065760405162461bcd60e51b815260206004820152602560248201527f45524332303a207472616e736665722066726f6d20746865207a65726f206164604482015264647265737360d81b606482015260840161065c565b6001600160a01b0382166112685760405162461bcd60e51b815260206004820152602360248201527f45524332303a207472616e7366657220746f20746865207a65726f206164647260448201526265737360e81b606482015260840161065c565b6001600160a01b038316600090815260208190526040902054818110156112e05760405162461bcd60e51b815260206004820152602660248201527f45524332303a207472616e7366657220616d6f756e7420657863656564732062604482015265616c616e636560d01b606482015260840161065c565b6001600160a01b03848116600081815260208181526040808320878703905593871680835291849020805487019055925185815290927fddf252ad1be2c89b69c2b068fc378daa952ba7f163c4a11628f55a4df523b3ef910160405180910390a361119c565b6113508282610b71565b61086b5760008281526005602090815260408083206001600160a01b03851684529091529020805460ff191660011790556113883390565b6001600160a01b0316816001600160a01b0316837f2f8788117e7eff1d82e926ec794901d17c78024a50270940304540a733656f0d60405160405180910390a45050565b6113d68282610b71565b1561086b5760008281526005602090815260408083206001600160a01b0385168085529252808320805460ff1916905551339285917ff6391f5c32d9c69d2a47ea670b442974b53935d1edc7fd64eb21e047a839171b9190a45050565b6001600160a01b0382166114895760405162461bcd60e51b815260206004820152601f60248201527f45524332303a206d696e7420746f20746865207a65726f206164647265737300604482015260640161065c565b806002600082825461149b9190611ab6565b90915550506001600160a01b038216600081815260208181526040808320805486019055518481527fddf252ad1be2c89b69c2b068fc378daa952ba7f163c4a11628f55a4df523b3ef910160405180910390a35050565b6114fc8282610b71565b61086b576115098161154b565b61151483602061155d565b604051602001611525929190611b8e565b60408051601f198184030181529082905262461bcd60e51b825261065c9160040161177a565b606061052b6001600160a01b03831660145b6060600061156c836002611ac9565b611577906002611ab6565b67ffffffffffffffff81111561158f5761158f611881565b6040519080825280601f01601f1916602001820160405280156115b9576020820181803683370190505b509050600360fc1b816000815181106115d4576115d4611c03565b60200101906001600160f81b031916908160001a905350600f60fb1b8160018151811061160357611603611c03565b60200101906001600160f81b031916908160001a9053506000611627846002611ac9565b611632906001611ab6565b90505b60018111156116aa576f181899199a1a9b1b9c1cb0b131b232b360811b85600f166010811061166657611666611c03565b1a60f81b82828151811061167c5761167c611c03565b60200101906001600160f81b031916908160001a90535060049490941c936116a381611c19565b9050611635565b5083156116f95760405162461bcd60e51b815260206004820181905260248201527f537472696e67733a20686578206c656e67746820696e73756666696369656e74604482015260640161065c565b9392505050565b60006020828403121561171257600080fd5b81356001600160e01b0319811681146116f957600080fd5b60005b8381101561174557818101518382015260200161172d565b50506000910152565b6000815180845261176681602086016020860161172a565b601f01601f19169290920160200192915050565b6020815260006116f9602083018461174e565b80356001600160a01b03811681146117a457600080fd5b919050565b600080604083850312156117bc57600080fd5b6117c58361178d565b946020939093013593505050565b6000602082840312156117e557600080fd5b6116f98261178d565b634e487b7160e01b600052602160045260246000fd5b602081016003831061182657634e487b7160e01b600052602160045260246000fd5b91905290565b60008060006060848603121561184157600080fd5b61184a8461178d565b92506118586020850161178d565b9150604084013590509250925092565b60006020828403121561187a57600080fd5b5035919050565b634e487b7160e01b600052604160045260246000fd5b600082601f8301126118a857600080fd5b813567ffffffffffffffff808211156118c3576118c3611881565b604051601f8301601f19908116603f011681019082821181831017156118eb576118eb611881565b8160405283815286602085880101111561190457600080fd5b836020870160208301376000602085830101528094505050505092915050565b6000806040838503121561193757600080fd5b823567ffffffffffffffff81111561194e57600080fd5b61195a85828601611897565b9250506119696020840161178d565b90509250929050565b6000806040838503121561198557600080fd5b823591506119696020840161178d565b6000602082840312156119a757600080fd5b813567ffffffffffffffff8111156119be57600080fd5b6119ca84828501611897565b949350505050565b600080604083850312156119e557600080fd5b6119ee8361178d565b9150602083013567ffffffffffffffff811115611a0a57600080fd5b611a1685828601611897565b9150509250929050565b60008060408385031215611a3357600080fd5b611a3c8361178d565b91506119696020840161178d565b600181811c90821680611a5e57607f821691505b602082108103611a7e57634e487b7160e01b600052602260045260246000fd5b50919050565b60008251611a9681846020870161172a565b9190910192915050565b634e487b7160e01b600052601160045260246000fd5b8082018082111561052b5761052b611aa0565b808202811582820484141761052b5761052b611aa0565b600082611afd57634e487b7160e01b600052601260045260246000fd5b500490565b604081526000611b15604083018561174e565b90508260208301529392505050565b805169ffffffffffffffffffff811681146117a457600080fd5b600080600080600060a08688031215611b5657600080fd5b611b5f86611b24565b9450602086015193506040860151925060608601519150611b8260808701611b24565b90509295509295909350565b7f416363657373436f6e74726f6c3a206163636f756e7420000000000000000000815260008351611bc681601785016020880161172a565b7001034b99036b4b9b9b4b733903937b6329607d1b6017918401918201528351611bf781602884016020880161172a565b01602801949350505050565b634e487b7160e01b600052603260045260246000fd5b600081611c2857611c28611aa0565b50600019019056fea49807205ce4d355092ef5a8a18f56e8913cf4a201fbe287825b095693c21775a2646970667358221220369e0405adb7ec6be7d5a131918ba9f496916e71656505eb0a6275f32609c66864736f6c63430008140033a2646970667358221220385a0d7198fef5f1eb23dbd3e575c5054351df545797e9c537586d1dcd4098c464736f6c63430008140033","opcodes":"PUSH1 0x80 PUSH1 0x40 MSTORE CALLVALUE DUP1 ISZERO PUSH2 0x10 JUMPI PUSH1 0x0 DUP1 REVERT JUMPDEST POP PUSH1 0x40 MLOAD PUSH3 0x3329 CODESIZE SUB DUP1 PUSH3 0x3329 DUP4 CODECOPY DUP2 ADD PUSH1 0x40 DUP2 SWAP1 MSTORE PUSH2 0x31 SWAP2 PUSH2 0x10F JUMP JUMPDEST PUSH1 0x1 DUP1 SSTORE PUSH2 0x40 PUSH1 0x0 DUP3 PUSH2 0x70 JUMP JUMPDEST PUSH2 0x6A PUSH32 0xA49807205CE4D355092EF5A8A18F56E8913CF4A201FBE287825B095693C21775 DUP3 PUSH2 0x70 JUMP JUMPDEST POP PUSH2 0x13F JUMP JUMPDEST PUSH1 0x0 DUP3 DUP2 MSTORE PUSH1 0x20 DUP2 DUP2 MSTORE PUSH1 0x40 DUP1 DUP4 KECCAK256 PUSH1 0x1 PUSH1 0x1 PUSH1 0xA0 SHL SUB DUP6 AND DUP5 MSTORE SWAP1 SWAP2 MSTORE SWAP1 KECCAK256 SLOAD PUSH1 0xFF AND PUSH2 0x10B JUMPI PUSH1 0x0 DUP3 DUP2 MSTORE PUSH1 0x20 DUP2 DUP2 MSTORE PUSH1 0x40 DUP1 DUP4 KECCAK256 PUSH1 0x1 PUSH1 0x1 PUSH1 0xA0 SHL SUB DUP6 AND DUP5 MSTORE SWAP1 SWAP2 MSTORE SWAP1 KECCAK256 DUP1 SLOAD PUSH1 0xFF NOT AND PUSH1 0x1 OR SWAP1 SSTORE PUSH2 0xCA CALLER SWAP1 JUMP JUMPDEST PUSH1 0x1 PUSH1 0x1 PUSH1 0xA0 SHL SUB AND DUP2 PUSH1 0x1 PUSH1 0x1 PUSH1 0xA0 SHL SUB AND DUP4 PUSH32 0x2F8788117E7EFF1D82E926EC794901D17C78024A50270940304540A733656F0D PUSH1 0x40 MLOAD PUSH1 0x40 MLOAD DUP1 SWAP2 SUB SWAP1 LOG4 JUMPDEST POP POP JUMP JUMPDEST PUSH1 0x0 PUSH1 0x20 DUP3 DUP5 SUB SLT ISZERO PUSH2 0x121 JUMPI PUSH1 0x0 DUP1 REVERT JUMPDEST DUP2 MLOAD PUSH1 0x1 PUSH1 0x1 PUSH1 0xA0 SHL SUB DUP2 AND DUP2 EQ PUSH2 0x138 JUMPI PUSH1 0x0 DUP1 REVERT JUMPDEST SWAP4 SWAP3 POP POP POP JUMP JUMPDEST PUSH2 0x31DA DUP1 PUSH3 0x14F PUSH1 0x0 CODECOPY PUSH1 0x0 RETURN INVALID PUSH1 0x80 PUSH1 0x40 MSTORE CALLVALUE DUP1 ISZERO PUSH3 0x11 JUMPI PUSH1 0x0 DUP1 REVERT JUMPDEST POP PUSH1 0x4 CALLDATASIZE LT PUSH3 0x115 JUMPI PUSH1 0x0 CALLDATALOAD PUSH1 0xE0 SHR DUP1 PUSH4 0x75B238FC GT PUSH3 0xA3 JUMPI DUP1 PUSH4 0xA217FDDF GT PUSH3 0x6E JUMPI DUP1 PUSH4 0xA217FDDF EQ PUSH3 0x298 JUMPI DUP1 PUSH4 0xC769C8FC EQ PUSH3 0x2A1 JUMPI DUP1 PUSH4 0xD3BAFD04 EQ PUSH3 0x2CD JUMPI DUP1 PUSH4 0xD547741F EQ PUSH3 0x2E4 JUMPI PUSH1 0x0 DUP1 REVERT JUMPDEST DUP1 PUSH4 0x75B238FC EQ PUSH3 0x21C JUMPI DUP1 PUSH4 0x765FF061 EQ PUSH3 0x244 JUMPI DUP1 PUSH4 0x91D14854 EQ PUSH3 0x26A JUMPI DUP1 PUSH4 0xA0329830 EQ PUSH3 0x281 JUMPI PUSH1 0x0 DUP1 REVERT JUMPDEST DUP1 PUSH4 0x2F2FF15D GT PUSH3 0xE4 JUMPI DUP1 PUSH4 0x2F2FF15D EQ PUSH3 0x198 JUMPI DUP1 PUSH4 0x36568ABE EQ PUSH3 0x1AF JUMPI DUP1 PUSH4 0x4C36DD5A EQ PUSH3 0x1C6 JUMPI DUP1 PUSH4 0x6A8A69AA EQ PUSH3 0x1EC JUMPI PUSH1 0x0 DUP1 REVERT JUMPDEST DUP1 PUSH4 0x1FFC9A7 EQ PUSH3 0x11A JUMPI DUP1 PUSH4 0xBA00E22 EQ PUSH3 0x146 JUMPI DUP1 PUSH4 0x234B07E5 EQ PUSH3 0x159 JUMPI DUP1 PUSH4 0x248A9CA3 EQ PUSH3 0x172 JUMPI JUMPDEST PUSH1 0x0 DUP1 REVERT JUMPDEST PUSH3 0x131 PUSH3 0x12B CALLDATASIZE PUSH1 0x4 PUSH3 0xB73 JUMP JUMPDEST PUSH3 0x2FB JUMP JUMPDEST PUSH1 0x40 MLOAD SWAP1 ISZERO ISZERO DUP2 MSTORE PUSH1 0x20 ADD JUMPDEST PUSH1 0x40 MLOAD DUP1 SWAP2 SUB SWAP1 RETURN JUMPDEST PUSH1 0x3 SLOAD JUMPDEST PUSH1 0x40 MLOAD SWAP1 DUP2 MSTORE PUSH1 0x20 ADD PUSH3 0x13D JUMP JUMPDEST PUSH3 0x170 PUSH3 0x16A CALLDATASIZE PUSH1 0x4 PUSH3 0xBBC JUMP JUMPDEST PUSH3 0x333 JUMP JUMPDEST STOP JUMPDEST PUSH3 0x14A PUSH3 0x183 CALLDATASIZE PUSH1 0x4 PUSH3 0xBF4 JUMP JUMPDEST PUSH1 0x0 SWAP1 DUP2 MSTORE PUSH1 0x20 DUP2 SWAP1 MSTORE PUSH1 0x40 SWAP1 KECCAK256 PUSH1 0x1 ADD SLOAD SWAP1 JUMP JUMPDEST PUSH3 0x170 PUSH3 0x1A9 CALLDATASIZE PUSH1 0x4 PUSH3 0xC0E JUMP JUMPDEST PUSH3 0x426 JUMP JUMPDEST PUSH3 0x170 PUSH3 0x1C0 CALLDATASIZE PUSH1 0x4 PUSH3 0xC0E JUMP JUMPDEST PUSH3 0x454 JUMP JUMPDEST PUSH3 0x131 PUSH3 0x1D7 CALLDATASIZE PUSH1 0x4 PUSH3 0xC34 JUMP JUMPDEST PUSH1 0x2 PUSH1 0x20 MSTORE PUSH1 0x0 SWAP1 DUP2 MSTORE PUSH1 0x40 SWAP1 KECCAK256 SLOAD PUSH1 0xFF AND DUP2 JUMP JUMPDEST PUSH3 0x203 PUSH3 0x1FD CALLDATASIZE PUSH1 0x4 PUSH3 0xC52 JUMP JUMPDEST PUSH3 0x4D6 JUMP JUMPDEST PUSH1 0x40 MLOAD PUSH1 0x1 PUSH1 0x1 PUSH1 0xA0 SHL SUB SWAP1 SWAP2 AND DUP2 MSTORE PUSH1 0x20 ADD PUSH3 0x13D JUMP JUMPDEST PUSH3 0x14A PUSH32 0xA49807205CE4D355092EF5A8A18F56E8913CF4A201FBE287825B095693C21775 DUP2 JUMP JUMPDEST PUSH3 0x25B PUSH3 0x255 CALLDATASIZE PUSH1 0x4 PUSH3 0xC34 JUMP JUMPDEST PUSH3 0x50F JUMP JUMPDEST PUSH1 0x40 MLOAD PUSH3 0x13D SWAP2 SWAP1 PUSH3 0xC7F JUMP JUMPDEST PUSH3 0x131 PUSH3 0x27B CALLDATASIZE PUSH1 0x4 PUSH3 0xC0E JUMP JUMPDEST PUSH3 0x587 JUMP JUMPDEST PUSH3 0x203 PUSH3 0x292 CALLDATASIZE PUSH1 0x4 PUSH3 0xD79 JUMP JUMPDEST PUSH3 0x5B0 JUMP JUMPDEST PUSH3 0x14A PUSH1 0x0 DUP2 JUMP JUMPDEST PUSH3 0x14A PUSH3 0x2B2 CALLDATASIZE PUSH1 0x4 PUSH3 0xC34 JUMP JUMPDEST PUSH1 0x1 PUSH1 0x1 PUSH1 0xA0 SHL SUB AND PUSH1 0x0 SWAP1 DUP2 MSTORE PUSH1 0x4 PUSH1 0x20 MSTORE PUSH1 0x40 SWAP1 KECCAK256 SLOAD SWAP1 JUMP JUMPDEST PUSH3 0x203 PUSH3 0x2DE CALLDATASIZE PUSH1 0x4 PUSH3 0xBF4 JUMP JUMPDEST PUSH3 0x77F JUMP JUMPDEST PUSH3 0x170 PUSH3 0x2F5 CALLDATASIZE PUSH1 0x4 PUSH3 0xC0E JUMP JUMPDEST PUSH3 0x7AA JUMP JUMPDEST PUSH1 0x0 PUSH1 0x1 PUSH1 0x1 PUSH1 0xE0 SHL SUB NOT DUP3 AND PUSH4 0x7965DB0B PUSH1 0xE0 SHL EQ DUP1 PUSH3 0x32D JUMPI POP PUSH4 0x1FFC9A7 PUSH1 0xE0 SHL PUSH1 0x1 PUSH1 0x1 PUSH1 0xE0 SHL SUB NOT DUP4 AND EQ JUMPDEST SWAP3 SWAP2 POP POP JUMP JUMPDEST PUSH32 0xA49807205CE4D355092EF5A8A18F56E8913CF4A201FBE287825B095693C21775 PUSH3 0x35F DUP2 PUSH3 0x7D3 JUMP JUMPDEST PUSH1 0x1 PUSH1 0x1 PUSH1 0xA0 SHL SUB DUP4 AND PUSH1 0x0 SWAP1 DUP2 MSTORE PUSH1 0x2 PUSH1 0x20 MSTORE PUSH1 0x40 SWAP1 KECCAK256 SLOAD PUSH1 0xFF AND PUSH3 0x3C4 JUMPI PUSH1 0x40 MLOAD PUSH3 0x461BCD PUSH1 0xE5 SHL DUP2 MSTORE PUSH1 0x20 PUSH1 0x4 DUP3 ADD MSTORE PUSH1 0x14 PUSH1 0x24 DUP3 ADD MSTORE PUSH20 0x151BDAD95B88191BD95CC81B9BDD08195E1A5CDD PUSH1 0x62 SHL PUSH1 0x44 DUP3 ADD MSTORE PUSH1 0x64 ADD JUMPDEST PUSH1 0x40 MLOAD DUP1 SWAP2 SUB SWAP1 REVERT JUMPDEST PUSH1 0x40 MLOAD PUSH4 0x892D86CD PUSH1 0xE0 SHL DUP2 MSTORE PUSH1 0x1 PUSH1 0x1 PUSH1 0xA0 SHL SUB DUP4 DUP2 AND PUSH1 0x4 DUP4 ADD MSTORE DUP5 AND SWAP1 PUSH4 0x892D86CD SWAP1 PUSH1 0x24 ADD PUSH1 0x0 PUSH1 0x40 MLOAD DUP1 DUP4 SUB DUP2 PUSH1 0x0 DUP8 DUP1 EXTCODESIZE ISZERO DUP1 ISZERO PUSH3 0x408 JUMPI PUSH1 0x0 DUP1 REVERT JUMPDEST POP GAS CALL ISZERO DUP1 ISZERO PUSH3 0x41D JUMPI RETURNDATASIZE PUSH1 0x0 DUP1 RETURNDATACOPY RETURNDATASIZE PUSH1 0x0 REVERT JUMPDEST POP POP POP POP POP POP POP JUMP JUMPDEST PUSH1 0x0 DUP3 DUP2 MSTORE PUSH1 0x20 DUP2 SWAP1 MSTORE PUSH1 0x40 SWAP1 KECCAK256 PUSH1 0x1 ADD SLOAD PUSH3 0x443 DUP2 PUSH3 0x7D3 JUMP JUMPDEST PUSH3 0x44F DUP4 DUP4 PUSH3 0x7E2 JUMP JUMPDEST POP POP POP JUMP JUMPDEST PUSH1 0x1 PUSH1 0x1 PUSH1 0xA0 SHL SUB DUP2 AND CALLER EQ PUSH3 0x4C6 JUMPI PUSH1 0x40 MLOAD PUSH3 0x461BCD PUSH1 0xE5 SHL DUP2 MSTORE PUSH1 0x20 PUSH1 0x4 DUP3 ADD MSTORE PUSH1 0x2F PUSH1 0x24 DUP3 ADD MSTORE PUSH32 0x416363657373436F6E74726F6C3A2063616E206F6E6C792072656E6F756E6365 PUSH1 0x44 DUP3 ADD MSTORE PUSH15 0x103937B632B9903337B91039B2B633 PUSH1 0x89 SHL PUSH1 0x64 DUP3 ADD MSTORE PUSH1 0x84 ADD PUSH3 0x3BB JUMP JUMPDEST PUSH3 0x4D2 DUP3 DUP3 PUSH3 0x86A JUMP JUMPDEST POP POP JUMP JUMPDEST PUSH1 0x4 PUSH1 0x20 MSTORE DUP2 PUSH1 0x0 MSTORE PUSH1 0x40 PUSH1 0x0 KECCAK256 DUP2 DUP2 SLOAD DUP2 LT PUSH3 0x4F3 JUMPI PUSH1 0x0 DUP1 REVERT JUMPDEST PUSH1 0x0 SWAP2 DUP3 MSTORE PUSH1 0x20 SWAP1 SWAP2 KECCAK256 ADD SLOAD PUSH1 0x1 PUSH1 0x1 PUSH1 0xA0 SHL SUB AND SWAP2 POP DUP3 SWAP1 POP JUMP JUMPDEST PUSH1 0x1 PUSH1 0x1 PUSH1 0xA0 SHL SUB DUP2 AND PUSH1 0x0 SWAP1 DUP2 MSTORE PUSH1 0x4 PUSH1 0x20 SWAP1 DUP2 MSTORE PUSH1 0x40 SWAP2 DUP3 SWAP1 KECCAK256 DUP1 SLOAD DUP4 MLOAD DUP2 DUP5 MUL DUP2 ADD DUP5 ADD SWAP1 SWAP5 MSTORE DUP1 DUP5 MSTORE PUSH1 0x60 SWAP4 SWAP3 DUP4 ADD DUP3 DUP3 DUP1 ISZERO PUSH3 0x57B JUMPI PUSH1 0x20 MUL DUP3 ADD SWAP2 SWAP1 PUSH1 0x0 MSTORE PUSH1 0x20 PUSH1 0x0 KECCAK256 SWAP1 JUMPDEST DUP2 SLOAD PUSH1 0x1 PUSH1 0x1 PUSH1 0xA0 SHL SUB AND DUP2 MSTORE PUSH1 0x1 SWAP1 SWAP2 ADD SWAP1 PUSH1 0x20 ADD DUP1 DUP4 GT PUSH3 0x55C JUMPI JUMPDEST POP POP POP POP POP SWAP1 POP SWAP2 SWAP1 POP JUMP JUMPDEST PUSH1 0x0 SWAP2 DUP3 MSTORE PUSH1 0x20 DUP3 DUP2 MSTORE PUSH1 0x40 DUP1 DUP5 KECCAK256 PUSH1 0x1 PUSH1 0x1 PUSH1 0xA0 SHL SUB SWAP4 SWAP1 SWAP4 AND DUP5 MSTORE SWAP2 SWAP1 MSTORE SWAP1 KECCAK256 SLOAD PUSH1 0xFF AND SWAP1 JUMP JUMPDEST PUSH1 0x0 PUSH32 0xA49807205CE4D355092EF5A8A18F56E8913CF4A201FBE287825B095693C21775 PUSH3 0x5DE DUP2 PUSH3 0x7D3 JUMP JUMPDEST PUSH3 0x5E8 PUSH3 0x8D2 JUMP JUMPDEST PUSH1 0x0 DUP8 DUP8 CALLER DUP9 DUP9 PUSH1 0x40 MLOAD PUSH3 0x5FD SWAP1 PUSH3 0xB65 JUMP JUMPDEST PUSH3 0x60D SWAP6 SWAP5 SWAP4 SWAP3 SWAP2 SWAP1 PUSH3 0xE9A JUMP JUMPDEST PUSH1 0x40 MLOAD DUP1 SWAP2 SUB SWAP1 PUSH1 0x0 CREATE DUP1 ISZERO DUP1 ISZERO PUSH3 0x62A JUMPI RETURNDATASIZE PUSH1 0x0 DUP1 RETURNDATACOPY RETURNDATASIZE PUSH1 0x0 REVERT JUMPDEST POP PUSH1 0x1 PUSH1 0x1 PUSH1 0xA0 SHL SUB DUP1 DUP3 AND PUSH1 0x0 DUP2 DUP2 MSTORE PUSH1 0x2 PUSH1 0x20 SWAP1 DUP2 MSTORE PUSH1 0x40 DUP1 DUP4 KECCAK256 DUP1 SLOAD PUSH1 0xFF NOT AND PUSH1 0x1 SWAP1 DUP2 OR SWAP1 SWAP2 SSTORE PUSH1 0x3 DUP1 SLOAD DUP1 DUP4 ADD SWAP1 SWAP2 SSTORE PUSH32 0xC2575A0E9E593C00F959F8C92F12DB2869C3395A3B0502D05E2516446F71F85B ADD DUP1 SLOAD PUSH1 0x1 PUSH1 0x1 PUSH1 0xA0 SHL SUB NOT SWAP1 DUP2 AND DUP8 OR SWAP1 SWAP2 SSTORE SWAP6 DUP12 AND DUP5 MSTORE PUSH1 0x4 DUP1 DUP5 MSTORE DUP3 DUP6 KECCAK256 DUP1 SLOAD SWAP3 DUP4 ADD DUP2 SSTORE DUP6 MSTORE SWAP3 SWAP1 SWAP4 KECCAK256 SWAP1 SWAP3 ADD DUP1 SLOAD SWAP1 SWAP5 AND DUP4 OR SWAP1 SWAP4 SSTORE MLOAD PUSH4 0x97BBB761 PUSH1 0xE0 SHL DUP2 MSTORE SWAP3 SWAP4 POP DUP4 SWAP3 SWAP1 SWAP2 PUSH4 0x97BBB761 SWAP2 PUSH3 0x6E3 SWAP2 DUP10 SWAP2 DUP13 SWAP2 ADD PUSH3 0xF0A JUMP JUMPDEST PUSH1 0x0 PUSH1 0x40 MLOAD DUP1 DUP4 SUB DUP2 PUSH1 0x0 DUP8 DUP1 EXTCODESIZE ISZERO DUP1 ISZERO PUSH3 0x6FE JUMPI PUSH1 0x0 DUP1 REVERT JUMPDEST POP GAS CALL ISZERO DUP1 ISZERO PUSH3 0x713 JUMPI RETURNDATASIZE PUSH1 0x0 DUP1 RETURNDATACOPY RETURNDATASIZE PUSH1 0x0 REVERT JUMPDEST POP POP POP POP DUP5 PUSH1 0x1 PUSH1 0x1 PUSH1 0xA0 SHL SUB AND DUP2 PUSH1 0x1 PUSH1 0x1 PUSH1 0xA0 SHL SUB AND PUSH32 0x96230712CF9274362ABF6D06BFEEE0F7D37850117219996A813E8B73DBB4E590 DUP12 DUP12 DUP12 PUSH1 0x40 MLOAD PUSH3 0x760 SWAP4 SWAP3 SWAP2 SWAP1 PUSH3 0xF38 JUMP JUMPDEST PUSH1 0x40 MLOAD DUP1 SWAP2 SUB SWAP1 LOG3 SWAP3 POP POP PUSH3 0x775 PUSH1 0x1 DUP1 SSTORE JUMP JUMPDEST POP SWAP6 SWAP5 POP POP POP POP POP JUMP JUMPDEST PUSH1 0x3 DUP2 DUP2 SLOAD DUP2 LT PUSH3 0x790 JUMPI PUSH1 0x0 DUP1 REVERT JUMPDEST PUSH1 0x0 SWAP2 DUP3 MSTORE PUSH1 0x20 SWAP1 SWAP2 KECCAK256 ADD SLOAD PUSH1 0x1 PUSH1 0x1 PUSH1 0xA0 SHL SUB AND SWAP1 POP DUP2 JUMP JUMPDEST PUSH1 0x0 DUP3 DUP2 MSTORE PUSH1 0x20 DUP2 SWAP1 MSTORE PUSH1 0x40 SWAP1 KECCAK256 PUSH1 0x1 ADD SLOAD PUSH3 0x7C7 DUP2 PUSH3 0x7D3 JUMP JUMPDEST PUSH3 0x44F DUP4 DUP4 PUSH3 0x86A JUMP JUMPDEST PUSH3 0x7DF DUP2 CALLER PUSH3 0x92D JUMP JUMPDEST POP JUMP JUMPDEST PUSH3 0x7EE DUP3 DUP3 PUSH3 0x587 JUMP JUMPDEST PUSH3 0x4D2 JUMPI PUSH1 0x0 DUP3 DUP2 MSTORE PUSH1 0x20 DUP2 DUP2 MSTORE PUSH1 0x40 DUP1 DUP4 KECCAK256 PUSH1 0x1 PUSH1 0x1 PUSH1 0xA0 SHL SUB DUP6 AND DUP5 MSTORE SWAP1 SWAP2 MSTORE SWAP1 KECCAK256 DUP1 SLOAD PUSH1 0xFF NOT AND PUSH1 0x1 OR SWAP1 SSTORE PUSH3 0x826 CALLER SWAP1 JUMP JUMPDEST PUSH1 0x1 PUSH1 0x1 PUSH1 0xA0 SHL SUB AND DUP2 PUSH1 0x1 PUSH1 0x1 PUSH1 0xA0 SHL SUB AND DUP4 PUSH32 0x2F8788117E7EFF1D82E926EC794901D17C78024A50270940304540A733656F0D PUSH1 0x40 MLOAD PUSH1 0x40 MLOAD DUP1 SWAP2 SUB SWAP1 LOG4 POP POP JUMP JUMPDEST PUSH3 0x876 DUP3 DUP3 PUSH3 0x587 JUMP JUMPDEST ISZERO PUSH3 0x4D2 JUMPI PUSH1 0x0 DUP3 DUP2 MSTORE PUSH1 0x20 DUP2 DUP2 MSTORE PUSH1 0x40 DUP1 DUP4 KECCAK256 PUSH1 0x1 PUSH1 0x1 PUSH1 0xA0 SHL SUB DUP6 AND DUP1 DUP6 MSTORE SWAP3 MSTORE DUP1 DUP4 KECCAK256 DUP1 SLOAD PUSH1 0xFF NOT AND SWAP1 SSTORE MLOAD CALLER SWAP3 DUP6 SWAP2 PUSH32 0xF6391F5C32D9C69D2A47EA670B442974B53935D1EDC7FD64EB21E047A839171B SWAP2 SWAP1 LOG4 POP POP JUMP JUMPDEST PUSH1 0x2 PUSH1 0x1 SLOAD SUB PUSH3 0x926 JUMPI PUSH1 0x40 MLOAD PUSH3 0x461BCD PUSH1 0xE5 SHL DUP2 MSTORE PUSH1 0x20 PUSH1 0x4 DUP3 ADD MSTORE PUSH1 0x1F PUSH1 0x24 DUP3 ADD MSTORE PUSH32 0x5265656E7472616E637947756172643A207265656E7472616E742063616C6C00 PUSH1 0x44 DUP3 ADD MSTORE PUSH1 0x64 ADD PUSH3 0x3BB JUMP JUMPDEST PUSH1 0x2 PUSH1 0x1 SSTORE JUMP JUMPDEST PUSH3 0x939 DUP3 DUP3 PUSH3 0x587 JUMP JUMPDEST PUSH3 0x4D2 JUMPI PUSH3 0x949 DUP2 PUSH3 0x991 JUMP JUMPDEST PUSH3 0x956 DUP4 PUSH1 0x20 PUSH3 0x9A4 JUMP JUMPDEST PUSH1 0x40 MLOAD PUSH1 0x20 ADD PUSH3 0x969 SWAP3 SWAP2 SWAP1 PUSH3 0xF81 JUMP JUMPDEST PUSH1 0x40 DUP1 MLOAD PUSH1 0x1F NOT DUP2 DUP5 SUB ADD DUP2 MSTORE SWAP1 DUP3 SWAP1 MSTORE PUSH3 0x461BCD PUSH1 0xE5 SHL DUP3 MSTORE PUSH3 0x3BB SWAP2 PUSH1 0x4 ADD PUSH3 0xFFA JUMP JUMPDEST PUSH1 0x60 PUSH3 0x32D PUSH1 0x1 PUSH1 0x1 PUSH1 0xA0 SHL SUB DUP4 AND PUSH1 0x14 JUMPDEST PUSH1 0x60 PUSH1 0x0 PUSH3 0x9B5 DUP4 PUSH1 0x2 PUSH3 0x1025 JUMP JUMPDEST PUSH3 0x9C2 SWAP1 PUSH1 0x2 PUSH3 0x103F JUMP JUMPDEST PUSH8 0xFFFFFFFFFFFFFFFF DUP2 GT ISZERO PUSH3 0x9DD JUMPI PUSH3 0x9DD PUSH3 0xCCE JUMP JUMPDEST PUSH1 0x40 MLOAD SWAP1 DUP1 DUP3 MSTORE DUP1 PUSH1 0x1F ADD PUSH1 0x1F NOT AND PUSH1 0x20 ADD DUP3 ADD PUSH1 0x40 MSTORE DUP1 ISZERO PUSH3 0xA08 JUMPI PUSH1 0x20 DUP3 ADD DUP2 DUP1 CALLDATASIZE DUP4 CALLDATACOPY ADD SWAP1 POP JUMPDEST POP SWAP1 POP PUSH1 0x3 PUSH1 0xFC SHL DUP2 PUSH1 0x0 DUP2 MLOAD DUP2 LT PUSH3 0xA26 JUMPI PUSH3 0xA26 PUSH3 0x1055 JUMP JUMPDEST PUSH1 0x20 ADD ADD SWAP1 PUSH1 0x1 PUSH1 0x1 PUSH1 0xF8 SHL SUB NOT AND SWAP1 DUP2 PUSH1 0x0 BYTE SWAP1 MSTORE8 POP PUSH1 0xF PUSH1 0xFB SHL DUP2 PUSH1 0x1 DUP2 MLOAD DUP2 LT PUSH3 0xA58 JUMPI PUSH3 0xA58 PUSH3 0x1055 JUMP JUMPDEST PUSH1 0x20 ADD ADD SWAP1 PUSH1 0x1 PUSH1 0x1 PUSH1 0xF8 SHL SUB NOT AND SWAP1 DUP2 PUSH1 0x0 BYTE SWAP1 MSTORE8 POP PUSH1 0x0 PUSH3 0xA7E DUP5 PUSH1 0x2 PUSH3 0x1025 JUMP JUMPDEST PUSH3 0xA8B SWAP1 PUSH1 0x1 PUSH3 0x103F JUMP JUMPDEST SWAP1 POP JUMPDEST PUSH1 0x1 DUP2 GT ISZERO PUSH3 0xB0D JUMPI PUSH16 0x181899199A1A9B1B9C1CB0B131B232B3 PUSH1 0x81 SHL DUP6 PUSH1 0xF AND PUSH1 0x10 DUP2 LT PUSH3 0xAC3 JUMPI PUSH3 0xAC3 PUSH3 0x1055 JUMP JUMPDEST BYTE PUSH1 0xF8 SHL DUP3 DUP3 DUP2 MLOAD DUP2 LT PUSH3 0xADC JUMPI PUSH3 0xADC PUSH3 0x1055 JUMP JUMPDEST PUSH1 0x20 ADD ADD SWAP1 PUSH1 0x1 PUSH1 0x1 PUSH1 0xF8 SHL SUB NOT AND SWAP1 DUP2 PUSH1 0x0 BYTE SWAP1 MSTORE8 POP PUSH1 0x4 SWAP5 SWAP1 SWAP5 SHR SWAP4 PUSH3 0xB05 DUP2 PUSH3 0x106B JUMP JUMPDEST SWAP1 POP PUSH3 0xA8E JUMP JUMPDEST POP DUP4 ISZERO PUSH3 0xB5E JUMPI PUSH1 0x40 MLOAD PUSH3 0x461BCD PUSH1 0xE5 SHL DUP2 MSTORE PUSH1 0x20 PUSH1 0x4 DUP3 ADD DUP2 SWAP1 MSTORE PUSH1 0x24 DUP3 ADD MSTORE PUSH32 0x537472696E67733A20686578206C656E67746820696E73756666696369656E74 PUSH1 0x44 DUP3 ADD MSTORE PUSH1 0x64 ADD PUSH3 0x3BB JUMP JUMPDEST SWAP4 SWAP3 POP POP POP JUMP JUMPDEST PUSH2 0x211F DUP1 PUSH3 0x1086 DUP4 CODECOPY ADD SWAP1 JUMP JUMPDEST PUSH1 0x0 PUSH1 0x20 DUP3 DUP5 SUB SLT ISZERO PUSH3 0xB86 JUMPI PUSH1 0x0 DUP1 REVERT JUMPDEST DUP2 CALLDATALOAD PUSH1 0x1 PUSH1 0x1 PUSH1 0xE0 SHL SUB NOT DUP2 AND DUP2 EQ PUSH3 0xB5E JUMPI PUSH1 0x0 DUP1 REVERT JUMPDEST DUP1 CALLDATALOAD PUSH1 0x1 PUSH1 0x1 PUSH1 0xA0 SHL SUB DUP2 AND DUP2 EQ PUSH3 0xBB7 JUMPI PUSH1 0x0 DUP1 REVERT JUMPDEST SWAP2 SWAP1 POP JUMP JUMPDEST PUSH1 0x0 DUP1 PUSH1 0x40 DUP4 DUP6 SUB SLT ISZERO PUSH3 0xBD0 JUMPI PUSH1 0x0 DUP1 REVERT JUMPDEST PUSH3 0xBDB DUP4 PUSH3 0xB9F JUMP JUMPDEST SWAP2 POP PUSH3 0xBEB PUSH1 0x20 DUP5 ADD PUSH3 0xB9F JUMP JUMPDEST SWAP1 POP SWAP3 POP SWAP3 SWAP1 POP JUMP JUMPDEST PUSH1 0x0 PUSH1 0x20 DUP3 DUP5 SUB SLT ISZERO PUSH3 0xC07 JUMPI PUSH1 0x0 DUP1 REVERT JUMPDEST POP CALLDATALOAD SWAP2 SWAP1 POP JUMP JUMPDEST PUSH1 0x0 DUP1 PUSH1 0x40 DUP4 DUP6 SUB SLT ISZERO PUSH3 0xC22 JUMPI PUSH1 0x0 DUP1 REVERT JUMPDEST DUP3 CALLDATALOAD SWAP2 POP PUSH3 0xBEB PUSH1 0x20 DUP5 ADD PUSH3 0xB9F JUMP JUMPDEST PUSH1 0x0 PUSH1 0x20 DUP3 DUP5 SUB SLT ISZERO PUSH3 0xC47 JUMPI PUSH1 0x0 DUP1 REVERT JUMPDEST PUSH3 0xB5E DUP3 PUSH3 0xB9F JUMP JUMPDEST PUSH1 0x0 DUP1 PUSH1 0x40 DUP4 DUP6 SUB SLT ISZERO PUSH3 0xC66 JUMPI PUSH1 0x0 DUP1 REVERT JUMPDEST PUSH3 0xC71 DUP4 PUSH3 0xB9F JUMP JUMPDEST SWAP5 PUSH1 0x20 SWAP4 SWAP1 SWAP4 ADD CALLDATALOAD SWAP4 POP POP POP JUMP JUMPDEST PUSH1 0x20 DUP1 DUP3 MSTORE DUP3 MLOAD DUP3 DUP3 ADD DUP2 SWAP1 MSTORE PUSH1 0x0 SWAP2 SWAP1 DUP5 DUP3 ADD SWAP1 PUSH1 0x40 DUP6 ADD SWAP1 DUP5 JUMPDEST DUP2 DUP2 LT ISZERO PUSH3 0xCC2 JUMPI DUP4 MLOAD PUSH1 0x1 PUSH1 0x1 PUSH1 0xA0 SHL SUB AND DUP4 MSTORE SWAP3 DUP5 ADD SWAP3 SWAP2 DUP5 ADD SWAP2 PUSH1 0x1 ADD PUSH3 0xC9B JUMP JUMPDEST POP SWAP1 SWAP7 SWAP6 POP POP POP POP POP POP JUMP JUMPDEST PUSH4 0x4E487B71 PUSH1 0xE0 SHL PUSH1 0x0 MSTORE PUSH1 0x41 PUSH1 0x4 MSTORE PUSH1 0x24 PUSH1 0x0 REVERT JUMPDEST PUSH1 0x0 DUP3 PUSH1 0x1F DUP4 ADD SLT PUSH3 0xCF6 JUMPI PUSH1 0x0 DUP1 REVERT JUMPDEST DUP2 CALLDATALOAD PUSH8 0xFFFFFFFFFFFFFFFF DUP1 DUP3 GT ISZERO PUSH3 0xD14 JUMPI PUSH3 0xD14 PUSH3 0xCCE JUMP JUMPDEST PUSH1 0x40 MLOAD PUSH1 0x1F DUP4 ADD PUSH1 0x1F NOT SWAP1 DUP2 AND PUSH1 0x3F ADD AND DUP2 ADD SWAP1 DUP3 DUP3 GT DUP2 DUP4 LT OR ISZERO PUSH3 0xD3F JUMPI PUSH3 0xD3F PUSH3 0xCCE JUMP JUMPDEST DUP2 PUSH1 0x40 MSTORE DUP4 DUP2 MSTORE DUP7 PUSH1 0x20 DUP6 DUP9 ADD ADD GT ISZERO PUSH3 0xD59 JUMPI PUSH1 0x0 DUP1 REVERT JUMPDEST DUP4 PUSH1 0x20 DUP8 ADD PUSH1 0x20 DUP4 ADD CALLDATACOPY PUSH1 0x0 PUSH1 0x20 DUP6 DUP4 ADD ADD MSTORE DUP1 SWAP5 POP POP POP POP POP SWAP3 SWAP2 POP POP JUMP JUMPDEST PUSH1 0x0 DUP1 PUSH1 0x0 DUP1 PUSH1 0x0 PUSH1 0xA0 DUP7 DUP9 SUB SLT ISZERO PUSH3 0xD92 JUMPI PUSH1 0x0 DUP1 REVERT JUMPDEST DUP6 CALLDATALOAD PUSH8 0xFFFFFFFFFFFFFFFF DUP1 DUP3 GT ISZERO PUSH3 0xDAB JUMPI PUSH1 0x0 DUP1 REVERT JUMPDEST PUSH3 0xDB9 DUP10 DUP4 DUP11 ADD PUSH3 0xCE4 JUMP JUMPDEST SWAP7 POP PUSH1 0x20 DUP9 ADD CALLDATALOAD SWAP2 POP DUP1 DUP3 GT ISZERO PUSH3 0xDD0 JUMPI PUSH1 0x0 DUP1 REVERT JUMPDEST PUSH3 0xDDE DUP10 DUP4 DUP11 ADD PUSH3 0xCE4 JUMP JUMPDEST SWAP6 POP PUSH1 0x40 DUP9 ADD CALLDATALOAD SWAP2 POP DUP1 DUP3 GT ISZERO PUSH3 0xDF5 JUMPI PUSH1 0x0 DUP1 REVERT JUMPDEST PUSH3 0xE03 DUP10 DUP4 DUP11 ADD PUSH3 0xCE4 JUMP JUMPDEST SWAP5 POP PUSH1 0x60 DUP9 ADD CALLDATALOAD SWAP2 POP DUP1 DUP3 GT ISZERO PUSH3 0xE1A JUMPI PUSH1 0x0 DUP1 REVERT JUMPDEST POP PUSH3 0xE29 DUP9 DUP3 DUP10 ADD PUSH3 0xCE4 JUMP JUMPDEST SWAP3 POP POP PUSH3 0xE3A PUSH1 0x80 DUP8 ADD PUSH3 0xB9F JUMP JUMPDEST SWAP1 POP SWAP3 SWAP6 POP SWAP3 SWAP6 SWAP1 SWAP4 POP JUMP JUMPDEST PUSH1 0x0 JUMPDEST DUP4 DUP2 LT ISZERO PUSH3 0xE63 JUMPI DUP2 DUP2 ADD MLOAD DUP4 DUP3 ADD MSTORE PUSH1 0x20 ADD PUSH3 0xE49 JUMP JUMPDEST POP POP PUSH1 0x0 SWAP2 ADD MSTORE JUMP JUMPDEST PUSH1 0x0 DUP2 MLOAD DUP1 DUP5 MSTORE PUSH3 0xE86 DUP2 PUSH1 0x20 DUP7 ADD PUSH1 0x20 DUP7 ADD PUSH3 0xE46 JUMP JUMPDEST PUSH1 0x1F ADD PUSH1 0x1F NOT AND SWAP3 SWAP1 SWAP3 ADD PUSH1 0x20 ADD SWAP3 SWAP2 POP POP JUMP JUMPDEST PUSH1 0xA0 DUP2 MSTORE PUSH1 0x0 PUSH3 0xEAF PUSH1 0xA0 DUP4 ADD DUP9 PUSH3 0xE6C JUMP JUMPDEST DUP3 DUP2 SUB PUSH1 0x20 DUP5 ADD MSTORE PUSH3 0xEC3 DUP2 DUP9 PUSH3 0xE6C JUMP JUMPDEST PUSH1 0x1 PUSH1 0x1 PUSH1 0xA0 SHL SUB DUP8 AND PUSH1 0x40 DUP6 ADD MSTORE DUP4 DUP2 SUB PUSH1 0x60 DUP6 ADD MSTORE SWAP1 POP PUSH3 0xEE8 DUP2 DUP7 PUSH3 0xE6C JUMP JUMPDEST SWAP1 POP DUP3 DUP2 SUB PUSH1 0x80 DUP5 ADD MSTORE PUSH3 0xEFE DUP2 DUP6 PUSH3 0xE6C JUMP JUMPDEST SWAP9 SWAP8 POP POP POP POP POP POP POP POP JUMP JUMPDEST PUSH1 0x1 PUSH1 0x1 PUSH1 0xA0 SHL SUB DUP4 AND DUP2 MSTORE PUSH1 0x40 PUSH1 0x20 DUP3 ADD DUP2 SWAP1 MSTORE PUSH1 0x0 SWAP1 PUSH3 0xF30 SWAP1 DUP4 ADD DUP5 PUSH3 0xE6C JUMP JUMPDEST SWAP5 SWAP4 POP POP POP POP JUMP JUMPDEST PUSH1 0x60 DUP2 MSTORE PUSH1 0x0 PUSH3 0xF4D PUSH1 0x60 DUP4 ADD DUP7 PUSH3 0xE6C JUMP JUMPDEST DUP3 DUP2 SUB PUSH1 0x20 DUP5 ADD MSTORE PUSH3 0xF61 DUP2 DUP7 PUSH3 0xE6C JUMP JUMPDEST SWAP1 POP DUP3 DUP2 SUB PUSH1 0x40 DUP5 ADD MSTORE PUSH3 0xF77 DUP2 DUP6 PUSH3 0xE6C JUMP JUMPDEST SWAP7 SWAP6 POP POP POP POP POP POP JUMP JUMPDEST PUSH32 0x416363657373436F6E74726F6C3A206163636F756E7420000000000000000000 DUP2 MSTORE PUSH1 0x0 DUP4 MLOAD PUSH3 0xFBB DUP2 PUSH1 0x17 DUP6 ADD PUSH1 0x20 DUP9 ADD PUSH3 0xE46 JUMP JUMPDEST PUSH17 0x1034B99036B4B9B9B4B733903937B6329 PUSH1 0x7D SHL PUSH1 0x17 SWAP2 DUP5 ADD SWAP2 DUP3 ADD MSTORE DUP4 MLOAD PUSH3 0xFEE DUP2 PUSH1 0x28 DUP5 ADD PUSH1 0x20 DUP9 ADD PUSH3 0xE46 JUMP JUMPDEST ADD PUSH1 0x28 ADD SWAP5 SWAP4 POP POP POP POP JUMP JUMPDEST PUSH1 0x20 DUP2 MSTORE PUSH1 0x0 PUSH3 0xB5E PUSH1 0x20 DUP4 ADD DUP5 PUSH3 0xE6C JUMP JUMPDEST PUSH4 0x4E487B71 PUSH1 0xE0 SHL PUSH1 0x0 MSTORE PUSH1 0x11 PUSH1 0x4 MSTORE PUSH1 0x24 PUSH1 0x0 REVERT JUMPDEST DUP1 DUP3 MUL DUP2 ISZERO DUP3 DUP3 DIV DUP5 EQ OR PUSH3 0x32D JUMPI PUSH3 0x32D PUSH3 0x100F JUMP JUMPDEST DUP1 DUP3 ADD DUP1 DUP3 GT ISZERO PUSH3 0x32D JUMPI PUSH3 0x32D PUSH3 0x100F JUMP JUMPDEST PUSH4 0x4E487B71 PUSH1 0xE0 SHL PUSH1 0x0 MSTORE PUSH1 0x32 PUSH1 0x4 MSTORE PUSH1 0x24 PUSH1 0x0 REVERT JUMPDEST PUSH1 0x0 DUP2 PUSH3 0x107D JUMPI PUSH3 0x107D PUSH3 0x100F JUMP JUMPDEST POP PUSH1 0x0 NOT ADD SWAP1 JUMP INVALID PUSH1 0x80 PUSH1 0x40 MSTORE CALLVALUE DUP1 ISZERO PUSH3 0x11 JUMPI PUSH1 0x0 DUP1 REVERT JUMPDEST POP PUSH1 0x40 MLOAD PUSH3 0x211F CODESIZE SUB DUP1 PUSH3 0x211F DUP4 CODECOPY DUP2 ADD PUSH1 0x40 DUP2 SWAP1 MSTORE PUSH3 0x34 SWAP2 PUSH3 0x253 JUMP JUMPDEST DUP5 DUP5 PUSH1 0x3 PUSH3 0x44 DUP4 DUP3 PUSH3 0x3BD JUMP JUMPDEST POP PUSH1 0x4 PUSH3 0x53 DUP3 DUP3 PUSH3 0x3BD JUMP JUMPDEST POP POP PUSH1 0x1 PUSH1 0x6 SSTORE POP PUSH3 0x68 PUSH1 0x0 DUP5 PUSH3 0xE9 JUMP JUMPDEST PUSH3 0x94 PUSH32 0xA49807205CE4D355092EF5A8A18F56E8913CF4A201FBE287825B095693C21775 DUP5 PUSH3 0xE9 JUMP JUMPDEST PUSH3 0xC0 PUSH32 0x9F2DF0FED2C77648DE5860A4CC508CD0818C85B8B8A1AB4CEEEF8D981C8956A6 DUP5 PUSH3 0xE9 JUMP JUMPDEST PUSH1 0x7 PUSH3 0xCE DUP4 DUP3 PUSH3 0x3BD JUMP JUMPDEST POP PUSH1 0x8 PUSH3 0xDD DUP3 DUP3 PUSH3 0x3BD JUMP JUMPDEST POP POP POP POP POP POP PUSH3 0x489 JUMP JUMPDEST PUSH1 0x0 DUP3 DUP2 MSTORE PUSH1 0x5 PUSH1 0x20 SWAP1 DUP2 MSTORE PUSH1 0x40 DUP1 DUP4 KECCAK256 PUSH1 0x1 PUSH1 0x1 PUSH1 0xA0 SHL SUB DUP6 AND DUP5 MSTORE SWAP1 SWAP2 MSTORE SWAP1 KECCAK256 SLOAD PUSH1 0xFF AND PUSH3 0x18A JUMPI PUSH1 0x0 DUP3 DUP2 MSTORE PUSH1 0x5 PUSH1 0x20 SWAP1 DUP2 MSTORE PUSH1 0x40 DUP1 DUP4 KECCAK256 PUSH1 0x1 PUSH1 0x1 PUSH1 0xA0 SHL SUB DUP6 AND DUP5 MSTORE SWAP1 SWAP2 MSTORE SWAP1 KECCAK256 DUP1 SLOAD PUSH1 0xFF NOT AND PUSH1 0x1 OR SWAP1 SSTORE PUSH3 0x149 CALLER SWAP1 JUMP JUMPDEST PUSH1 0x1 PUSH1 0x1 PUSH1 0xA0 SHL SUB AND DUP2 PUSH1 0x1 PUSH1 0x1 PUSH1 0xA0 SHL SUB AND DUP4 PUSH32 0x2F8788117E7EFF1D82E926EC794901D17C78024A50270940304540A733656F0D PUSH1 0x40 MLOAD PUSH1 0x40 MLOAD DUP1 SWAP2 SUB SWAP1 LOG4 JUMPDEST POP POP JUMP JUMPDEST PUSH4 0x4E487B71 PUSH1 0xE0 SHL PUSH1 0x0 MSTORE PUSH1 0x41 PUSH1 0x4 MSTORE PUSH1 0x24 PUSH1 0x0 REVERT JUMPDEST PUSH1 0x0 DUP3 PUSH1 0x1F DUP4 ADD SLT PUSH3 0x1B6 JUMPI PUSH1 0x0 DUP1 REVERT JUMPDEST DUP2 MLOAD PUSH1 0x1 PUSH1 0x1 PUSH1 0x40 SHL SUB DUP1 DUP3 GT ISZERO PUSH3 0x1D3 JUMPI PUSH3 0x1D3 PUSH3 0x18E JUMP JUMPDEST PUSH1 0x40 MLOAD PUSH1 0x1F DUP4 ADD PUSH1 0x1F NOT SWAP1 DUP2 AND PUSH1 0x3F ADD AND DUP2 ADD SWAP1 DUP3 DUP3 GT DUP2 DUP4 LT OR ISZERO PUSH3 0x1FE JUMPI PUSH3 0x1FE PUSH3 0x18E JUMP JUMPDEST DUP2 PUSH1 0x40 MSTORE DUP4 DUP2 MSTORE PUSH1 0x20 SWAP3 POP DUP7 DUP4 DUP6 DUP9 ADD ADD GT ISZERO PUSH3 0x21B JUMPI PUSH1 0x0 DUP1 REVERT JUMPDEST PUSH1 0x0 SWAP2 POP JUMPDEST DUP4 DUP3 LT ISZERO PUSH3 0x23F JUMPI DUP6 DUP3 ADD DUP4 ADD MLOAD DUP2 DUP4 ADD DUP5 ADD MSTORE SWAP1 DUP3 ADD SWAP1 PUSH3 0x220 JUMP JUMPDEST PUSH1 0x0 SWAP4 DUP2 ADD SWAP1 SWAP3 ADD SWAP3 SWAP1 SWAP3 MSTORE SWAP5 SWAP4 POP POP POP POP JUMP JUMPDEST PUSH1 0x0 DUP1 PUSH1 0x0 DUP1 PUSH1 0x0 PUSH1 0xA0 DUP7 DUP9 SUB SLT ISZERO PUSH3 0x26C JUMPI PUSH1 0x0 DUP1 REVERT JUMPDEST DUP6 MLOAD PUSH1 0x1 PUSH1 0x1 PUSH1 0x40 SHL SUB DUP1 DUP3 GT ISZERO PUSH3 0x284 JUMPI PUSH1 0x0 DUP1 REVERT JUMPDEST PUSH3 0x292 DUP10 DUP4 DUP11 ADD PUSH3 0x1A4 JUMP JUMPDEST SWAP7 POP PUSH1 0x20 DUP9 ADD MLOAD SWAP2 POP DUP1 DUP3 GT ISZERO PUSH3 0x2A9 JUMPI PUSH1 0x0 DUP1 REVERT JUMPDEST PUSH3 0x2B7 DUP10 DUP4 DUP11 ADD PUSH3 0x1A4 JUMP JUMPDEST PUSH1 0x40 DUP10 ADD MLOAD SWAP1 SWAP7 POP SWAP2 POP PUSH1 0x1 PUSH1 0x1 PUSH1 0xA0 SHL SUB DUP3 AND DUP3 EQ PUSH3 0x2D7 JUMPI PUSH1 0x0 DUP1 REVERT JUMPDEST PUSH1 0x60 DUP9 ADD MLOAD SWAP2 SWAP5 POP DUP1 DUP3 GT ISZERO PUSH3 0x2ED JUMPI PUSH1 0x0 DUP1 REVERT JUMPDEST PUSH3 0x2FB DUP10 DUP4 DUP11 ADD PUSH3 0x1A4 JUMP JUMPDEST SWAP4 POP PUSH1 0x80 DUP9 ADD MLOAD SWAP2 POP DUP1 DUP3 GT ISZERO PUSH3 0x312 JUMPI PUSH1 0x0 DUP1 REVERT JUMPDEST POP PUSH3 0x321 DUP9 DUP3 DUP10 ADD PUSH3 0x1A4 JUMP JUMPDEST SWAP2 POP POP SWAP3 SWAP6 POP SWAP3 SWAP6 SWAP1 SWAP4 POP JUMP JUMPDEST PUSH1 0x1 DUP2 DUP2 SHR SWAP1 DUP3 AND DUP1 PUSH3 0x343 JUMPI PUSH1 0x7F DUP3 AND SWAP2 POP JUMPDEST PUSH1 0x20 DUP3 LT DUP2 SUB PUSH3 0x364 JUMPI PUSH4 0x4E487B71 PUSH1 0xE0 SHL PUSH1 0x0 MSTORE PUSH1 0x22 PUSH1 0x4 MSTORE PUSH1 0x24 PUSH1 0x0 REVERT JUMPDEST POP SWAP2 SWAP1 POP JUMP JUMPDEST PUSH1 0x1F DUP3 GT ISZERO PUSH3 0x3B8 JUMPI PUSH1 0x0 DUP2 DUP2 MSTORE PUSH1 0x20 DUP2 KECCAK256 PUSH1 0x1F DUP6 ADD PUSH1 0x5 SHR DUP2 ADD PUSH1 0x20 DUP7 LT ISZERO PUSH3 0x393 JUMPI POP DUP1 JUMPDEST PUSH1 0x1F DUP6 ADD PUSH1 0x5 SHR DUP3 ADD SWAP2 POP JUMPDEST DUP2 DUP2 LT ISZERO PUSH3 0x3B4 JUMPI DUP3 DUP2 SSTORE PUSH1 0x1 ADD PUSH3 0x39F JUMP JUMPDEST POP POP POP JUMPDEST POP POP POP JUMP JUMPDEST DUP2 MLOAD PUSH1 0x1 PUSH1 0x1 PUSH1 0x40 SHL SUB DUP2 GT ISZERO PUSH3 0x3D9 JUMPI PUSH3 0x3D9 PUSH3 0x18E JUMP JUMPDEST PUSH3 0x3F1 DUP2 PUSH3 0x3EA DUP5 SLOAD PUSH3 0x32E JUMP JUMPDEST DUP5 PUSH3 0x36A JUMP JUMPDEST PUSH1 0x20 DUP1 PUSH1 0x1F DUP4 GT PUSH1 0x1 DUP2 EQ PUSH3 0x429 JUMPI PUSH1 0x0 DUP5 ISZERO PUSH3 0x410 JUMPI POP DUP6 DUP4 ADD MLOAD JUMPDEST PUSH1 0x0 NOT PUSH1 0x3 DUP7 SWAP1 SHL SHR NOT AND PUSH1 0x1 DUP6 SWAP1 SHL OR DUP6 SSTORE PUSH3 0x3B4 JUMP JUMPDEST PUSH1 0x0 DUP6 DUP2 MSTORE PUSH1 0x20 DUP2 KECCAK256 PUSH1 0x1F NOT DUP7 AND SWAP2 JUMPDEST DUP3 DUP2 LT ISZERO PUSH3 0x45A JUMPI DUP9 DUP7 ADD MLOAD DUP3 SSTORE SWAP5 DUP5 ADD SWAP5 PUSH1 0x1 SWAP1 SWAP2 ADD SWAP1 DUP5 ADD PUSH3 0x439 JUMP JUMPDEST POP DUP6 DUP3 LT ISZERO PUSH3 0x479 JUMPI DUP8 DUP6 ADD MLOAD PUSH1 0x0 NOT PUSH1 0x3 DUP9 SWAP1 SHL PUSH1 0xF8 AND SHR NOT AND DUP2 SSTORE JUMPDEST POP POP POP POP POP PUSH1 0x1 SWAP1 DUP2 SHL ADD SWAP1 SSTORE POP JUMP JUMPDEST PUSH2 0x1C86 DUP1 PUSH3 0x499 PUSH1 0x0 CODECOPY PUSH1 0x0 RETURN INVALID PUSH1 0x80 PUSH1 0x40 MSTORE CALLVALUE DUP1 ISZERO PUSH2 0x10 JUMPI PUSH1 0x0 DUP1 REVERT JUMPDEST POP PUSH1 0x4 CALLDATASIZE LT PUSH2 0x1FB JUMPI PUSH1 0x0 CALLDATALOAD PUSH1 0xE0 SHR DUP1 PUSH4 0x70A08231 GT PUSH2 0x11A JUMPI DUP1 PUSH4 0x95D89B41 GT PUSH2 0xAD JUMPI DUP1 PUSH4 0xA9059CBB GT PUSH2 0x7C JUMPI DUP1 PUSH4 0xA9059CBB EQ PUSH2 0x487 JUMPI DUP1 PUSH4 0xD5391393 EQ PUSH2 0x49A JUMPI DUP1 PUSH4 0xD547741F EQ PUSH2 0x4C1 JUMPI DUP1 PUSH4 0xDD62ED3E EQ PUSH2 0x4D4 JUMPI DUP1 PUSH4 0xF66A1B71 EQ PUSH2 0x4E7 JUMPI PUSH1 0x0 DUP1 REVERT JUMPDEST DUP1 PUSH4 0x95D89B41 EQ PUSH2 0x451 JUMPI DUP1 PUSH4 0x97BBB761 EQ PUSH2 0x459 JUMPI DUP1 PUSH4 0xA217FDDF EQ PUSH2 0x46C JUMPI DUP1 PUSH4 0xA457C2D7 EQ PUSH2 0x474 JUMPI PUSH1 0x0 DUP1 REVERT JUMPDEST DUP1 PUSH4 0x847466BE GT PUSH2 0xE9 JUMPI DUP1 PUSH4 0x847466BE EQ PUSH2 0x3D7 JUMPI DUP1 PUSH4 0x892D86CD EQ PUSH2 0x423 JUMPI DUP1 PUSH4 0x91D14854 EQ PUSH2 0x436 JUMPI DUP1 PUSH4 0x938626C2 EQ PUSH2 0x449 JUMPI PUSH1 0x0 DUP1 REVERT JUMPDEST DUP1 PUSH4 0x70A08231 EQ PUSH2 0x366 JUMPI DUP1 PUSH4 0x75B238FC EQ PUSH2 0x38F JUMPI DUP1 PUSH4 0x76E7DB5D EQ PUSH2 0x3A4 JUMPI DUP1 PUSH4 0x79CC6790 EQ PUSH2 0x3C4 JUMPI PUSH1 0x0 DUP1 REVERT JUMPDEST DUP1 PUSH4 0x2970FDFA GT PUSH2 0x192 JUMPI DUP1 PUSH4 0x39509351 GT PUSH2 0x161 JUMPI DUP1 PUSH4 0x39509351 EQ PUSH2 0x325 JUMPI DUP1 PUSH4 0x3FE3347A EQ PUSH2 0x338 JUMPI DUP1 PUSH4 0x40C10F19 EQ PUSH2 0x340 JUMPI DUP1 PUSH4 0x42966C68 EQ PUSH2 0x353 JUMPI PUSH1 0x0 DUP1 REVERT JUMPDEST DUP1 PUSH4 0x2970FDFA EQ PUSH2 0x2DD JUMPI DUP1 PUSH4 0x2F2FF15D EQ PUSH2 0x2F0 JUMPI DUP1 PUSH4 0x313CE567 EQ PUSH2 0x303 JUMPI DUP1 PUSH4 0x36568ABE EQ PUSH2 0x312 JUMPI PUSH1 0x0 DUP1 REVERT JUMPDEST DUP1 PUSH4 0x118FF3DC GT PUSH2 0x1CE JUMPI DUP1 PUSH4 0x118FF3DC EQ PUSH2 0x265 JUMPI DUP1 PUSH4 0x18160DDD EQ PUSH2 0x295 JUMPI DUP1 PUSH4 0x23B872DD EQ PUSH2 0x2A7 JUMPI DUP1 PUSH4 0x248A9CA3 EQ PUSH2 0x2BA JUMPI PUSH1 0x0 DUP1 REVERT JUMPDEST DUP1 PUSH4 0x1FFC9A7 EQ PUSH2 0x200 JUMPI DUP1 PUSH4 0x6FDDE03 EQ PUSH2 0x228 JUMPI DUP1 PUSH4 0x95EA7B3 EQ PUSH2 0x23D JUMPI DUP1 PUSH4 0xD1118CE EQ PUSH2 0x250 JUMPI JUMPDEST PUSH1 0x0 DUP1 REVERT JUMPDEST PUSH2 0x213 PUSH2 0x20E CALLDATASIZE PUSH1 0x4 PUSH2 0x1700 JUMP JUMPDEST PUSH2 0x4FA JUMP JUMPDEST PUSH1 0x40 MLOAD SWAP1 ISZERO ISZERO DUP2 MSTORE PUSH1 0x20 ADD JUMPDEST PUSH1 0x40 MLOAD DUP1 SWAP2 SUB SWAP1 RETURN JUMPDEST PUSH2 0x230 PUSH2 0x531 JUMP JUMPDEST PUSH1 0x40 MLOAD PUSH2 0x21F SWAP2 SWAP1 PUSH2 0x177A JUMP JUMPDEST PUSH2 0x213 PUSH2 0x24B CALLDATASIZE PUSH1 0x4 PUSH2 0x17A9 JUMP JUMPDEST PUSH2 0x5C3 JUMP JUMPDEST PUSH2 0x263 PUSH2 0x25E CALLDATASIZE PUSH1 0x4 PUSH2 0x17A9 JUMP JUMPDEST PUSH2 0x5DB JUMP JUMPDEST STOP JUMPDEST PUSH2 0x288 PUSH2 0x273 CALLDATASIZE PUSH1 0x4 PUSH2 0x17D3 JUMP JUMPDEST PUSH1 0xB PUSH1 0x20 MSTORE PUSH1 0x0 SWAP1 DUP2 MSTORE PUSH1 0x40 SWAP1 KECCAK256 SLOAD PUSH1 0xFF AND DUP2 JUMP JUMPDEST PUSH1 0x40 MLOAD PUSH2 0x21F SWAP2 SWAP1 PUSH2 0x1804 JUMP JUMPDEST PUSH1 0x2 SLOAD JUMPDEST PUSH1 0x40 MLOAD SWAP1 DUP2 MSTORE PUSH1 0x20 ADD PUSH2 0x21F JUMP JUMPDEST PUSH2 0x213 PUSH2 0x2B5 CALLDATASIZE PUSH1 0x4 PUSH2 0x182C JUMP JUMPDEST PUSH2 0x6C1 JUMP JUMPDEST PUSH2 0x299 PUSH2 0x2C8 CALLDATASIZE PUSH1 0x4 PUSH2 0x1868 JUMP JUMPDEST PUSH1 0x0 SWAP1 DUP2 MSTORE PUSH1 0x5 PUSH1 0x20 MSTORE PUSH1 0x40 SWAP1 KECCAK256 PUSH1 0x1 ADD SLOAD SWAP1 JUMP JUMPDEST PUSH2 0x263 PUSH2 0x2EB CALLDATASIZE PUSH1 0x4 PUSH2 0x1924 JUMP JUMPDEST PUSH2 0x6E5 JUMP JUMPDEST PUSH2 0x263 PUSH2 0x2FE CALLDATASIZE PUSH1 0x4 PUSH2 0x1972 JUMP JUMPDEST PUSH2 0x7CC JUMP JUMPDEST PUSH1 0x40 MLOAD PUSH1 0x12 DUP2 MSTORE PUSH1 0x20 ADD PUSH2 0x21F JUMP JUMPDEST PUSH2 0x263 PUSH2 0x320 CALLDATASIZE PUSH1 0x4 PUSH2 0x1972 JUMP JUMPDEST PUSH2 0x7F1 JUMP JUMPDEST PUSH2 0x213 PUSH2 0x333 CALLDATASIZE PUSH1 0x4 PUSH2 0x17A9 JUMP JUMPDEST PUSH2 0x86F JUMP JUMPDEST PUSH2 0x230 PUSH2 0x891 JUMP JUMPDEST PUSH2 0x263 PUSH2 0x34E CALLDATASIZE PUSH1 0x4 PUSH2 0x17A9 JUMP JUMPDEST PUSH2 0x91F JUMP JUMPDEST PUSH2 0x263 PUSH2 0x361 CALLDATASIZE PUSH1 0x4 PUSH2 0x1868 JUMP JUMPDEST PUSH2 0x989 JUMP JUMPDEST PUSH2 0x299 PUSH2 0x374 CALLDATASIZE PUSH1 0x4 PUSH2 0x17D3 JUMP JUMPDEST PUSH1 0x1 PUSH1 0x1 PUSH1 0xA0 SHL SUB AND PUSH1 0x0 SWAP1 DUP2 MSTORE PUSH1 0x20 DUP2 SWAP1 MSTORE PUSH1 0x40 SWAP1 KECCAK256 SLOAD SWAP1 JUMP JUMPDEST PUSH2 0x299 PUSH1 0x0 DUP1 MLOAD PUSH1 0x20 PUSH2 0x1C31 DUP4 CODECOPY DUP2 MLOAD SWAP2 MSTORE DUP2 JUMP JUMPDEST PUSH2 0x299 PUSH2 0x3B2 CALLDATASIZE PUSH1 0x4 PUSH2 0x17D3 JUMP JUMPDEST PUSH1 0xA PUSH1 0x20 MSTORE PUSH1 0x0 SWAP1 DUP2 MSTORE PUSH1 0x40 SWAP1 KECCAK256 SLOAD DUP2 JUMP JUMPDEST PUSH2 0x263 PUSH2 0x3D2 CALLDATASIZE PUSH1 0x4 PUSH2 0x17A9 JUMP JUMPDEST PUSH2 0x996 JUMP JUMPDEST PUSH2 0x40B PUSH2 0x3E5 CALLDATASIZE PUSH1 0x4 PUSH2 0x1995 JUMP JUMPDEST DUP1 MLOAD PUSH1 0x20 DUP2 DUP4 ADD DUP2 ADD DUP1 MLOAD PUSH1 0x9 DUP3 MSTORE SWAP3 DUP3 ADD SWAP2 SWAP1 SWAP4 ADD KECCAK256 SWAP2 MSTORE SLOAD PUSH1 0x1 PUSH1 0x1 PUSH1 0xA0 SHL SUB AND DUP2 JUMP JUMPDEST PUSH1 0x40 MLOAD PUSH1 0x1 PUSH1 0x1 PUSH1 0xA0 SHL SUB SWAP1 SWAP2 AND DUP2 MSTORE PUSH1 0x20 ADD PUSH2 0x21F JUMP JUMPDEST PUSH2 0x263 PUSH2 0x431 CALLDATASIZE PUSH1 0x4 PUSH2 0x17D3 JUMP JUMPDEST PUSH2 0x9AB JUMP JUMPDEST PUSH2 0x213 PUSH2 0x444 CALLDATASIZE PUSH1 0x4 PUSH2 0x1972 JUMP JUMPDEST PUSH2 0xB71 JUMP JUMPDEST PUSH2 0x230 PUSH2 0xB9C JUMP JUMPDEST PUSH2 0x230 PUSH2 0xBA9 JUMP JUMPDEST PUSH2 0x263 PUSH2 0x467 CALLDATASIZE PUSH1 0x4 PUSH2 0x19D2 JUMP JUMPDEST PUSH2 0xBB8 JUMP JUMPDEST PUSH2 0x299 PUSH1 0x0 DUP2 JUMP JUMPDEST PUSH2 0x213 PUSH2 0x482 CALLDATASIZE PUSH1 0x4 PUSH2 0x17A9 JUMP JUMPDEST PUSH2 0xCA4 JUMP JUMPDEST PUSH2 0x213 PUSH2 0x495 CALLDATASIZE PUSH1 0x4 PUSH2 0x17A9 JUMP JUMPDEST PUSH2 0xD1F JUMP JUMPDEST PUSH2 0x299 PUSH32 0x9F2DF0FED2C77648DE5860A4CC508CD0818C85B8B8A1AB4CEEEF8D981C8956A6 DUP2 JUMP JUMPDEST PUSH2 0x263 PUSH2 0x4CF CALLDATASIZE PUSH1 0x4 PUSH2 0x1972 JUMP JUMPDEST PUSH2 0xD2D JUMP JUMPDEST PUSH2 0x299 PUSH2 0x4E2 CALLDATASIZE PUSH1 0x4 PUSH2 0x1A20 JUMP JUMPDEST PUSH2 0xD52 JUMP JUMPDEST PUSH2 0x299 PUSH2 0x4F5 CALLDATASIZE PUSH1 0x4 PUSH2 0x1995 JUMP JUMPDEST PUSH2 0xD7D JUMP JUMPDEST PUSH1 0x0 PUSH1 0x1 PUSH1 0x1 PUSH1 0xE0 SHL SUB NOT DUP3 AND PUSH4 0x7965DB0B PUSH1 0xE0 SHL EQ DUP1 PUSH2 0x52B JUMPI POP PUSH4 0x1FFC9A7 PUSH1 0xE0 SHL PUSH1 0x1 PUSH1 0x1 PUSH1 0xE0 SHL SUB NOT DUP4 AND EQ JUMPDEST SWAP3 SWAP2 POP POP JUMP JUMPDEST PUSH1 0x60 PUSH1 0x3 DUP1 SLOAD PUSH2 0x540 SWAP1 PUSH2 0x1A4A JUMP JUMPDEST DUP1 PUSH1 0x1F ADD PUSH1 0x20 DUP1 SWAP2 DIV MUL PUSH1 0x20 ADD PUSH1 0x40 MLOAD SWAP1 DUP2 ADD PUSH1 0x40 MSTORE DUP1 SWAP3 SWAP2 SWAP1 DUP2 DUP2 MSTORE PUSH1 0x20 ADD DUP3 DUP1 SLOAD PUSH2 0x56C SWAP1 PUSH2 0x1A4A JUMP JUMPDEST DUP1 ISZERO PUSH2 0x5B9 JUMPI DUP1 PUSH1 0x1F LT PUSH2 0x58E JUMPI PUSH2 0x100 DUP1 DUP4 SLOAD DIV MUL DUP4 MSTORE SWAP2 PUSH1 0x20 ADD SWAP2 PUSH2 0x5B9 JUMP JUMPDEST DUP3 ADD SWAP2 SWAP1 PUSH1 0x0 MSTORE PUSH1 0x20 PUSH1 0x0 KECCAK256 SWAP1 JUMPDEST DUP2 SLOAD DUP2 MSTORE SWAP1 PUSH1 0x1 ADD SWAP1 PUSH1 0x20 ADD DUP1 DUP4 GT PUSH2 0x59C JUMPI DUP3 SWAP1 SUB PUSH1 0x1F AND DUP3 ADD SWAP2 JUMPDEST POP POP POP POP POP SWAP1 POP SWAP1 JUMP JUMPDEST PUSH1 0x0 CALLER PUSH2 0x5D1 DUP2 DUP6 DUP6 PUSH2 0xE6F JUMP JUMPDEST POP PUSH1 0x1 SWAP4 SWAP3 POP POP POP JUMP JUMPDEST PUSH1 0x0 DUP1 MLOAD PUSH1 0x20 PUSH2 0x1C31 DUP4 CODECOPY DUP2 MLOAD SWAP2 MSTORE PUSH2 0x5F3 DUP2 PUSH2 0xF93 JUMP JUMPDEST PUSH2 0x5FB PUSH2 0xF9D JUMP JUMPDEST DUP2 PUSH2 0x61B DUP5 PUSH1 0x1 PUSH1 0x1 PUSH1 0xA0 SHL SUB AND PUSH1 0x0 SWAP1 DUP2 MSTORE PUSH1 0x20 DUP2 SWAP1 MSTORE PUSH1 0x40 SWAP1 KECCAK256 SLOAD SWAP1 JUMP JUMPDEST LT ISZERO PUSH2 0x665 JUMPI PUSH1 0x40 MLOAD PUSH3 0x461BCD PUSH1 0xE5 SHL DUP2 MSTORE PUSH1 0x20 PUSH1 0x4 DUP3 ADD MSTORE PUSH1 0x14 PUSH1 0x24 DUP3 ADD MSTORE PUSH20 0x496E73756666696369656E742062616C616E6365 PUSH1 0x60 SHL PUSH1 0x44 DUP3 ADD MSTORE PUSH1 0x64 ADD JUMPDEST PUSH1 0x40 MLOAD DUP1 SWAP2 SUB SWAP1 REVERT JUMPDEST PUSH2 0x66F DUP4 DUP4 PUSH2 0xFF6 JUMP JUMPDEST DUP3 PUSH1 0x1 PUSH1 0x1 PUSH1 0xA0 SHL SUB AND PUSH32 0xFD38818F5291BF0BB3A2A48AADC06BA8757865D1DABD804585338AAB3009DCB6 DUP4 PUSH1 0x40 MLOAD PUSH2 0x6AA SWAP2 DUP2 MSTORE PUSH1 0x20 ADD SWAP1 JUMP JUMPDEST PUSH1 0x40 MLOAD DUP1 SWAP2 SUB SWAP1 LOG2 PUSH2 0x6BC PUSH1 0x1 PUSH1 0x6 SSTORE JUMP JUMPDEST POP POP POP JUMP JUMPDEST PUSH1 0x0 CALLER PUSH2 0x6CF DUP6 DUP3 DUP6 PUSH2 0x1128 JUMP JUMPDEST PUSH2 0x6DA DUP6 DUP6 DUP6 PUSH2 0x11A2 JUMP JUMPDEST POP PUSH1 0x1 SWAP5 SWAP4 POP POP POP POP JUMP JUMPDEST PUSH1 0x0 DUP1 MLOAD PUSH1 0x20 PUSH2 0x1C31 DUP4 CODECOPY DUP2 MLOAD SWAP2 MSTORE PUSH2 0x6FD DUP2 PUSH2 0xF93 JUMP JUMPDEST PUSH1 0x1 PUSH1 0x1 PUSH1 0xA0 SHL SUB DUP3 AND PUSH2 0x74C JUMPI PUSH1 0x40 MLOAD PUSH3 0x461BCD PUSH1 0xE5 SHL DUP2 MSTORE PUSH1 0x20 PUSH1 0x4 DUP3 ADD MSTORE PUSH1 0x16 PUSH1 0x24 DUP3 ADD MSTORE PUSH22 0x496E76616C6964206F7261636C652061646472657373 PUSH1 0x50 SHL PUSH1 0x44 DUP3 ADD MSTORE PUSH1 0x64 ADD PUSH2 0x65C JUMP JUMPDEST DUP2 PUSH1 0x9 DUP5 PUSH1 0x40 MLOAD PUSH2 0x75D SWAP2 SWAP1 PUSH2 0x1A84 JUMP JUMPDEST SWAP1 DUP2 MSTORE PUSH1 0x40 MLOAD SWAP1 DUP2 SWAP1 SUB PUSH1 0x20 ADD DUP2 KECCAK256 DUP1 SLOAD PUSH1 0x1 PUSH1 0x1 PUSH1 0xA0 SHL SUB SWAP4 DUP5 AND PUSH1 0x1 PUSH1 0x1 PUSH1 0xA0 SHL SUB NOT SWAP1 SWAP2 AND OR SWAP1 SSTORE SWAP1 DUP4 AND SWAP1 PUSH2 0x797 SWAP1 DUP6 SWAP1 PUSH2 0x1A84 JUMP JUMPDEST PUSH1 0x40 MLOAD SWAP1 DUP2 SWAP1 SUB DUP2 KECCAK256 SWAP1 PUSH32 0x967DCE4BD9F1EE4ACD36A0DF26AA5E6F63729594FE418B495116E30465F39FB0 SWAP1 PUSH1 0x0 SWAP1 LOG3 POP POP POP JUMP JUMPDEST PUSH1 0x0 DUP3 DUP2 MSTORE PUSH1 0x5 PUSH1 0x20 MSTORE PUSH1 0x40 SWAP1 KECCAK256 PUSH1 0x1 ADD SLOAD PUSH2 0x7E7 DUP2 PUSH2 0xF93 JUMP JUMPDEST PUSH2 0x6BC DUP4 DUP4 PUSH2 0x1346 JUMP JUMPDEST PUSH1 0x1 PUSH1 0x1 PUSH1 0xA0 SHL SUB DUP2 AND CALLER EQ PUSH2 0x861 JUMPI PUSH1 0x40 MLOAD PUSH3 0x461BCD PUSH1 0xE5 SHL DUP2 MSTORE PUSH1 0x20 PUSH1 0x4 DUP3 ADD MSTORE PUSH1 0x2F PUSH1 0x24 DUP3 ADD MSTORE PUSH32 0x416363657373436F6E74726F6C3A2063616E206F6E6C792072656E6F756E6365 PUSH1 0x44 DUP3 ADD MSTORE PUSH15 0x103937B632B9903337B91039B2B633 PUSH1 0x89 SHL PUSH1 0x64 DUP3 ADD MSTORE PUSH1 0x84 ADD PUSH2 0x65C JUMP JUMPDEST PUSH2 0x86B DUP3 DUP3 PUSH2 0x13CC JUMP JUMPDEST POP POP JUMP JUMPDEST PUSH1 0x0 CALLER PUSH2 0x5D1 DUP2 DUP6 DUP6 PUSH2 0x882 DUP4 DUP4 PUSH2 0xD52 JUMP JUMPDEST PUSH2 0x88C SWAP2 SWAP1 PUSH2 0x1AB6 JUMP JUMPDEST PUSH2 0xE6F JUMP JUMPDEST PUSH1 0x7 DUP1 SLOAD PUSH2 0x89E SWAP1 PUSH2 0x1A4A JUMP JUMPDEST DUP1 PUSH1 0x1F ADD PUSH1 0x20 DUP1 SWAP2 DIV MUL PUSH1 0x20 ADD PUSH1 0x40 MLOAD SWAP1 DUP2 ADD PUSH1 0x40 MSTORE DUP1 SWAP3 SWAP2 SWAP1 DUP2 DUP2 MSTORE PUSH1 0x20 ADD DUP3 DUP1 SLOAD PUSH2 0x8CA SWAP1 PUSH2 0x1A4A JUMP JUMPDEST DUP1 ISZERO PUSH2 0x917 JUMPI DUP1 PUSH1 0x1F LT PUSH2 0x8EC JUMPI PUSH2 0x100 DUP1 DUP4 SLOAD DIV MUL DUP4 MSTORE SWAP2 PUSH1 0x20 ADD SWAP2 PUSH2 0x917 JUMP JUMPDEST DUP3 ADD SWAP2 SWAP1 PUSH1 0x0 MSTORE PUSH1 0x20 PUSH1 0x0 KECCAK256 SWAP1 JUMPDEST DUP2 SLOAD DUP2 MSTORE SWAP1 PUSH1 0x1 ADD SWAP1 PUSH1 0x20 ADD DUP1 DUP4 GT PUSH2 0x8FA JUMPI DUP3 SWAP1 SUB PUSH1 0x1F AND DUP3 ADD SWAP2 JUMPDEST POP POP POP POP POP DUP2 JUMP JUMPDEST PUSH1 0x0 DUP1 MLOAD PUSH1 0x20 PUSH2 0x1C31 DUP4 CODECOPY DUP2 MLOAD SWAP2 MSTORE PUSH2 0x937 DUP2 PUSH2 0xF93 JUMP JUMPDEST PUSH2 0x941 DUP4 DUP4 PUSH2 0x1433 JUMP JUMPDEST DUP3 PUSH1 0x1 PUSH1 0x1 PUSH1 0xA0 SHL SUB AND PUSH32 0x3F2C9D57C068687834F0DE942A9BABB9E5ACAB57D516D3480A3C16EE165A4273 DUP4 PUSH1 0x40 MLOAD PUSH2 0x97C SWAP2 DUP2 MSTORE PUSH1 0x20 ADD SWAP1 JUMP JUMPDEST PUSH1 0x40 MLOAD DUP1 SWAP2 SUB SWAP1 LOG2 POP POP POP JUMP JUMPDEST PUSH2 0x993 CALLER DUP3 PUSH2 0xFF6 JUMP JUMPDEST POP JUMP JUMPDEST PUSH2 0x9A1 DUP3 CALLER DUP4 PUSH2 0x1128 JUMP JUMPDEST PUSH2 0x86B DUP3 DUP3 PUSH2 0xFF6 JUMP JUMPDEST PUSH1 0x0 DUP1 MLOAD PUSH1 0x20 PUSH2 0x1C31 DUP4 CODECOPY DUP2 MLOAD SWAP2 MSTORE PUSH2 0x9C3 DUP2 PUSH2 0xF93 JUMP JUMPDEST PUSH2 0x9CB PUSH2 0xF9D JUMP JUMPDEST PUSH1 0x1 PUSH1 0x1 PUSH1 0xA0 SHL SUB DUP3 AND PUSH1 0x0 SWAP1 DUP2 MSTORE PUSH1 0xB PUSH1 0x20 MSTORE PUSH1 0x40 DUP2 KECCAK256 SLOAD PUSH1 0xFF AND PUSH1 0x2 DUP2 GT ISZERO PUSH2 0x9F8 JUMPI PUSH2 0x9F8 PUSH2 0x17EE JUMP JUMPDEST EQ PUSH2 0xA3A JUMPI PUSH1 0x40 MLOAD PUSH3 0x461BCD PUSH1 0xE5 SHL DUP2 MSTORE PUSH1 0x20 PUSH1 0x4 DUP3 ADD MSTORE PUSH1 0x12 PUSH1 0x24 DUP3 ADD MSTORE PUSH18 0x506C65646765206E6F742070656E64696E67 PUSH1 0x70 SHL PUSH1 0x44 DUP3 ADD MSTORE PUSH1 0x64 ADD PUSH2 0x65C JUMP JUMPDEST PUSH1 0x1 PUSH1 0x1 PUSH1 0xA0 SHL SUB DUP3 AND PUSH1 0x0 SWAP1 DUP2 MSTORE PUSH1 0xA PUSH1 0x20 MSTORE PUSH1 0x40 DUP2 KECCAK256 SLOAD PUSH2 0xA65 SWAP1 PUSH8 0xDE0B6B3A7640000 PUSH2 0x1AC9 JUMP JUMPDEST SWAP1 POP PUSH1 0x0 DUP2 GT PUSH2 0xAA9 JUMPI PUSH1 0x40 MLOAD PUSH3 0x461BCD PUSH1 0xE5 SHL DUP2 MSTORE PUSH1 0x20 PUSH1 0x4 DUP3 ADD MSTORE PUSH1 0xF PUSH1 0x24 DUP3 ADD MSTORE PUSH15 0x139BDD1A1A5B99C81D1BC81B5A5B9D PUSH1 0x8A SHL PUSH1 0x44 DUP3 ADD MSTORE PUSH1 0x64 ADD PUSH2 0x65C JUMP JUMPDEST PUSH1 0x1 PUSH1 0x1 PUSH1 0xA0 SHL SUB DUP4 AND PUSH1 0x0 SWAP1 DUP2 MSTORE PUSH1 0xB PUSH1 0x20 SWAP1 DUP2 MSTORE PUSH1 0x40 DUP1 DUP4 KECCAK256 DUP1 SLOAD PUSH1 0xFF NOT AND PUSH1 0x1 OR SWAP1 SSTORE PUSH1 0xA SWAP1 SWAP2 MSTORE DUP2 KECCAK256 SSTORE PUSH2 0xAE1 DUP4 DUP3 PUSH2 0x1433 JUMP JUMPDEST DUP3 PUSH1 0x1 PUSH1 0x1 PUSH1 0xA0 SHL SUB AND PUSH32 0x6F91D59D667773922F9BB90DDD04CC0DE7A8732ECD544057CAEBD05A0EDF349A PUSH1 0x1 PUSH1 0x40 MLOAD PUSH2 0xB1B SWAP2 SWAP1 PUSH2 0x1804 JUMP JUMPDEST PUSH1 0x40 MLOAD DUP1 SWAP2 SUB SWAP1 LOG2 DUP3 PUSH1 0x1 PUSH1 0x1 PUSH1 0xA0 SHL SUB AND PUSH32 0x3F2C9D57C068687834F0DE942A9BABB9E5ACAB57D516D3480A3C16EE165A4273 DUP3 PUSH1 0x40 MLOAD PUSH2 0xB5E SWAP2 DUP2 MSTORE PUSH1 0x20 ADD SWAP1 JUMP JUMPDEST PUSH1 0x40 MLOAD DUP1 SWAP2 SUB SWAP1 LOG2 POP PUSH2 0x86B PUSH1 0x1 PUSH1 0x6 SSTORE JUMP JUMPDEST PUSH1 0x0 SWAP2 DUP3 MSTORE PUSH1 0x5 PUSH1 0x20 SWAP1 DUP2 MSTORE PUSH1 0x40 DUP1 DUP5 KECCAK256 PUSH1 0x1 PUSH1 0x1 PUSH1 0xA0 SHL SUB SWAP4 SWAP1 SWAP4 AND DUP5 MSTORE SWAP2 SWAP1 MSTORE SWAP1 KECCAK256 SLOAD PUSH1 0xFF AND SWAP1 JUMP JUMPDEST PUSH1 0x8 DUP1 SLOAD PUSH2 0x89E SWAP1 PUSH2 0x1A4A JUMP JUMPDEST PUSH1 0x60 PUSH1 0x4 DUP1 SLOAD PUSH2 0x540 SWAP1 PUSH2 0x1A4A JUMP JUMPDEST PUSH1 0x0 DUP1 MLOAD PUSH1 0x20 PUSH2 0x1C31 DUP4 CODECOPY DUP2 MLOAD SWAP2 MSTORE PUSH2 0xBD0 DUP2 PUSH2 0xF93 JUMP JUMPDEST PUSH1 0x0 PUSH2 0xBDB DUP4 PUSH2 0xD7D JUMP JUMPDEST SWAP1 POP PUSH1 0x0 DUP2 SGT PUSH2 0xC22 JUMPI PUSH1 0x40 MLOAD PUSH3 0x461BCD PUSH1 0xE5 SHL DUP2 MSTORE PUSH1 0x20 PUSH1 0x4 DUP3 ADD MSTORE PUSH1 0x12 PUSH1 0x24 DUP3 ADD MSTORE PUSH18 0x496E76616C6964206C697665207072696365 PUSH1 0x70 SHL PUSH1 0x44 DUP3 ADD MSTORE PUSH1 0x64 ADD PUSH2 0x65C JUMP JUMPDEST PUSH1 0x0 PUSH2 0xC32 PUSH4 0x5F5E100 DUP4 PUSH2 0x1AE0 JUMP JUMPDEST PUSH1 0x1 PUSH1 0x1 PUSH1 0xA0 SHL SUB DUP7 AND PUSH1 0x0 DUP2 DUP2 MSTORE PUSH1 0xA PUSH1 0x20 SWAP1 DUP2 MSTORE PUSH1 0x40 DUP1 DUP4 KECCAK256 DUP6 SWAP1 SSTORE PUSH1 0xB SWAP1 SWAP2 MSTORE SWAP1 DUP2 SWAP1 KECCAK256 DUP1 SLOAD PUSH1 0xFF NOT AND SWAP1 SSTORE MLOAD SWAP2 SWAP3 POP SWAP1 PUSH32 0xE8E63E19AF45BEF870F39C8C03C00C46A25EB15D530B4CDA64442D25643E8D3 SWAP1 PUSH2 0xC95 SWAP1 DUP8 SWAP1 DUP6 SWAP1 PUSH2 0x1B02 JUMP JUMPDEST PUSH1 0x40 MLOAD DUP1 SWAP2 SUB SWAP1 LOG2 POP POP POP POP POP JUMP JUMPDEST PUSH1 0x0 CALLER DUP2 PUSH2 0xCB2 DUP3 DUP7 PUSH2 0xD52 JUMP JUMPDEST SWAP1 POP DUP4 DUP2 LT ISZERO PUSH2 0xD12 JUMPI PUSH1 0x40 MLOAD PUSH3 0x461BCD PUSH1 0xE5 SHL DUP2 MSTORE PUSH1 0x20 PUSH1 0x4 DUP3 ADD MSTORE PUSH1 0x25 PUSH1 0x24 DUP3 ADD MSTORE PUSH32 0x45524332303A2064656372656173656420616C6C6F77616E63652062656C6F77 PUSH1 0x44 DUP3 ADD MSTORE PUSH5 0x207A65726F PUSH1 0xD8 SHL PUSH1 0x64 DUP3 ADD MSTORE PUSH1 0x84 ADD PUSH2 0x65C JUMP JUMPDEST PUSH2 0x6DA DUP3 DUP7 DUP7 DUP5 SUB PUSH2 0xE6F JUMP JUMPDEST PUSH1 0x0 CALLER PUSH2 0x5D1 DUP2 DUP6 DUP6 PUSH2 0x11A2 JUMP JUMPDEST PUSH1 0x0 DUP3 DUP2 MSTORE PUSH1 0x5 PUSH1 0x20 MSTORE PUSH1 0x40 SWAP1 KECCAK256 PUSH1 0x1 ADD SLOAD PUSH2 0xD48 DUP2 PUSH2 0xF93 JUMP JUMPDEST PUSH2 0x6BC DUP4 DUP4 PUSH2 0x13CC JUMP JUMPDEST PUSH1 0x1 PUSH1 0x1 PUSH1 0xA0 SHL SUB SWAP2 DUP3 AND PUSH1 0x0 SWAP1 DUP2 MSTORE PUSH1 0x1 PUSH1 0x20 SWAP1 DUP2 MSTORE PUSH1 0x40 DUP1 DUP4 KECCAK256 SWAP4 SWAP1 SWAP5 AND DUP3 MSTORE SWAP2 SWAP1 SWAP2 MSTORE KECCAK256 SLOAD SWAP1 JUMP JUMPDEST PUSH1 0x0 DUP1 PUSH1 0x9 DUP4 PUSH1 0x40 MLOAD PUSH2 0xD90 SWAP2 SWAP1 PUSH2 0x1A84 JUMP JUMPDEST SWAP1 DUP2 MSTORE PUSH1 0x40 MLOAD SWAP1 DUP2 SWAP1 SUB PUSH1 0x20 ADD SWAP1 KECCAK256 SLOAD PUSH1 0x1 PUSH1 0x1 PUSH1 0xA0 SHL SUB AND SWAP1 POP DUP1 PUSH2 0xDF8 JUMPI PUSH1 0x40 MLOAD PUSH3 0x461BCD PUSH1 0xE5 SHL DUP2 MSTORE PUSH1 0x20 PUSH1 0x4 DUP3 ADD MSTORE PUSH1 0x1D PUSH1 0x24 DUP3 ADD MSTORE PUSH32 0x4F7261636C65206E6F742073657420666F722061737365742074797065000000 PUSH1 0x44 DUP3 ADD MSTORE PUSH1 0x64 ADD PUSH2 0x65C JUMP JUMPDEST PUSH1 0x0 DUP2 SWAP1 POP PUSH1 0x0 DUP2 PUSH1 0x1 PUSH1 0x1 PUSH1 0xA0 SHL SUB AND PUSH4 0xFEAF968C PUSH1 0x40 MLOAD DUP2 PUSH4 0xFFFFFFFF AND PUSH1 0xE0 SHL DUP2 MSTORE PUSH1 0x4 ADD PUSH1 0xA0 PUSH1 0x40 MLOAD DUP1 DUP4 SUB DUP2 DUP7 GAS STATICCALL ISZERO DUP1 ISZERO PUSH2 0xE3D JUMPI RETURNDATASIZE PUSH1 0x0 DUP1 RETURNDATACOPY RETURNDATASIZE PUSH1 0x0 REVERT JUMPDEST POP POP POP POP PUSH1 0x40 MLOAD RETURNDATASIZE PUSH1 0x1F NOT PUSH1 0x1F DUP3 ADD AND DUP3 ADD DUP1 PUSH1 0x40 MSTORE POP DUP2 ADD SWAP1 PUSH2 0xE61 SWAP2 SWAP1 PUSH2 0x1B3E JUMP JUMPDEST POP SWAP2 SWAP9 SWAP8 POP POP POP POP POP POP POP POP JUMP JUMPDEST PUSH1 0x1 PUSH1 0x1 PUSH1 0xA0 SHL SUB DUP4 AND PUSH2 0xED1 JUMPI PUSH1 0x40 MLOAD PUSH3 0x461BCD PUSH1 0xE5 SHL DUP2 MSTORE PUSH1 0x20 PUSH1 0x4 DUP3 ADD MSTORE PUSH1 0x24 DUP1 DUP3 ADD MSTORE PUSH32 0x45524332303A20617070726F76652066726F6D20746865207A65726F20616464 PUSH1 0x44 DUP3 ADD MSTORE PUSH4 0x72657373 PUSH1 0xE0 SHL PUSH1 0x64 DUP3 ADD MSTORE PUSH1 0x84 ADD PUSH2 0x65C JUMP JUMPDEST PUSH1 0x1 PUSH1 0x1 PUSH1 0xA0 SHL SUB DUP3 AND PUSH2 0xF32 JUMPI PUSH1 0x40 MLOAD PUSH3 0x461BCD PUSH1 0xE5 SHL DUP2 MSTORE PUSH1 0x20 PUSH1 0x4 DUP3 ADD MSTORE PUSH1 0x22 PUSH1 0x24 DUP3 ADD MSTORE PUSH32 0x45524332303A20617070726F766520746F20746865207A65726F206164647265 PUSH1 0x44 DUP3 ADD MSTORE PUSH2 0x7373 PUSH1 0xF0 SHL PUSH1 0x64 DUP3 ADD MSTORE PUSH1 0x84 ADD PUSH2 0x65C JUMP JUMPDEST PUSH1 0x1 PUSH1 0x1 PUSH1 0xA0 SHL SUB DUP4 DUP2 AND PUSH1 0x0 DUP2 DUP2 MSTORE PUSH1 0x1 PUSH1 0x20 SWAP1 DUP2 MSTORE PUSH1 0x40 DUP1 DUP4 KECCAK256 SWAP5 DUP8 AND DUP1 DUP5 MSTORE SWAP5 DUP3 MSTORE SWAP2 DUP3 SWAP1 KECCAK256 DUP6 SWAP1 SSTORE SWAP1 MLOAD DUP5 DUP2 MSTORE PUSH32 0x8C5BE1E5EBEC7D5BD14F71427D1E84F3DD0314C0F7B2291E5B200AC8C7C3B925 SWAP2 ADD PUSH1 0x40 MLOAD DUP1 SWAP2 SUB SWAP1 LOG3 POP POP POP JUMP JUMPDEST PUSH2 0x993 DUP2 CALLER PUSH2 0x14F2 JUMP JUMPDEST PUSH1 0x2 PUSH1 0x6 SLOAD SUB PUSH2 0xFEF JUMPI PUSH1 0x40 MLOAD PUSH3 0x461BCD PUSH1 0xE5 SHL DUP2 MSTORE PUSH1 0x20 PUSH1 0x4 DUP3 ADD MSTORE PUSH1 0x1F PUSH1 0x24 DUP3 ADD MSTORE PUSH32 0x5265656E7472616E637947756172643A207265656E7472616E742063616C6C00 PUSH1 0x44 DUP3 ADD MSTORE PUSH1 0x64 ADD PUSH2 0x65C JUMP JUMPDEST PUSH1 0x2 PUSH1 0x6 SSTORE JUMP JUMPDEST PUSH1 0x1 PUSH1 0x1 PUSH1 0xA0 SHL SUB DUP3 AND PUSH2 0x1056 JUMPI PUSH1 0x40 MLOAD PUSH3 0x461BCD PUSH1 0xE5 SHL DUP2 MSTORE PUSH1 0x20 PUSH1 0x4 DUP3 ADD MSTORE PUSH1 0x21 PUSH1 0x24 DUP3 ADD MSTORE PUSH32 0x45524332303A206275726E2066726F6D20746865207A65726F20616464726573 PUSH1 0x44 DUP3 ADD MSTORE PUSH1 0x73 PUSH1 0xF8 SHL PUSH1 0x64 DUP3 ADD MSTORE PUSH1 0x84 ADD PUSH2 0x65C JUMP JUMPDEST PUSH1 0x1 PUSH1 0x1 PUSH1 0xA0 SHL SUB DUP3 AND PUSH1 0x0 SWAP1 DUP2 MSTORE PUSH1 0x20 DUP2 SWAP1 MSTORE PUSH1 0x40 SWAP1 KECCAK256 SLOAD DUP2 DUP2 LT ISZERO PUSH2 0x10CA JUMPI PUSH1 0x40 MLOAD PUSH3 0x461BCD PUSH1 0xE5 SHL DUP2 MSTORE PUSH1 0x20 PUSH1 0x4 DUP3 ADD MSTORE PUSH1 0x22 PUSH1 0x24 DUP3 ADD MSTORE PUSH32 0x45524332303A206275726E20616D6F756E7420657863656564732062616C616E PUSH1 0x44 DUP3 ADD MSTORE PUSH2 0x6365 PUSH1 0xF0 SHL PUSH1 0x64 DUP3 ADD MSTORE PUSH1 0x84 ADD PUSH2 0x65C JUMP JUMPDEST PUSH1 0x1 PUSH1 0x1 PUSH1 0xA0 SHL SUB DUP4 AND PUSH1 0x0 DUP2 DUP2 MSTORE PUSH1 0x20 DUP2 DUP2 MSTORE PUSH1 0x40 DUP1 DUP4 KECCAK256 DUP7 DUP7 SUB SWAP1 SSTORE PUSH1 0x2 DUP1 SLOAD DUP8 SWAP1 SUB SWAP1 SSTORE MLOAD DUP6 DUP2 MSTORE SWAP2 SWAP3 SWAP2 PUSH32 0xDDF252AD1BE2C89B69C2B068FC378DAA952BA7F163C4A11628F55A4DF523B3EF SWAP2 ADD PUSH1 0x40 MLOAD DUP1 SWAP2 SUB SWAP1 LOG3 POP POP POP JUMP JUMPDEST PUSH1 0x0 PUSH2 0x1134 DUP5 DUP5 PUSH2 0xD52 JUMP JUMPDEST SWAP1 POP PUSH1 0x0 NOT DUP2 EQ PUSH2 0x119C JUMPI DUP2 DUP2 LT ISZERO PUSH2 0x118F JUMPI PUSH1 0x40 MLOAD PUSH3 0x461BCD PUSH1 0xE5 SHL DUP2 MSTORE PUSH1 0x20 PUSH1 0x4 DUP3 ADD MSTORE PUSH1 0x1D PUSH1 0x24 DUP3 ADD MSTORE PUSH32 0x45524332303A20696E73756666696369656E7420616C6C6F77616E6365000000 PUSH1 0x44 DUP3 ADD MSTORE PUSH1 0x64 ADD PUSH2 0x65C JUMP JUMPDEST PUSH2 0x119C DUP5 DUP5 DUP5 DUP5 SUB PUSH2 0xE6F JUMP JUMPDEST POP POP POP POP JUMP JUMPDEST PUSH1 0x1 PUSH1 0x1 PUSH1 0xA0 SHL SUB DUP4 AND PUSH2 0x1206 JUMPI PUSH1 0x40 MLOAD PUSH3 0x461BCD PUSH1 0xE5 SHL DUP2 MSTORE PUSH1 0x20 PUSH1 0x4 DUP3 ADD MSTORE PUSH1 0x25 PUSH1 0x24 DUP3 ADD MSTORE PUSH32 0x45524332303A207472616E736665722066726F6D20746865207A65726F206164 PUSH1 0x44 DUP3 ADD MSTORE PUSH5 0x6472657373 PUSH1 0xD8 SHL PUSH1 0x64 DUP3 ADD MSTORE PUSH1 0x84 ADD PUSH2 0x65C JUMP JUMPDEST PUSH1 0x1 PUSH1 0x1 PUSH1 0xA0 SHL SUB DUP3 AND PUSH2 0x1268 JUMPI PUSH1 0x40 MLOAD PUSH3 0x461BCD PUSH1 0xE5 SHL DUP2 MSTORE PUSH1 0x20 PUSH1 0x4 DUP3 ADD MSTORE PUSH1 0x23 PUSH1 0x24 DUP3 ADD MSTORE PUSH32 0x45524332303A207472616E7366657220746F20746865207A65726F2061646472 PUSH1 0x44 DUP3 ADD MSTORE PUSH3 0x657373 PUSH1 0xE8 SHL PUSH1 0x64 DUP3 ADD MSTORE PUSH1 0x84 ADD PUSH2 0x65C JUMP JUMPDEST PUSH1 0x1 PUSH1 0x1 PUSH1 0xA0 SHL SUB DUP4 AND PUSH1 0x0 SWAP1 DUP2 MSTORE PUSH1 0x20 DUP2 SWAP1 MSTORE PUSH1 0x40 SWAP1 KECCAK256 SLOAD DUP2 DUP2 LT ISZERO PUSH2 0x12E0 JUMPI PUSH1 0x40 MLOAD PUSH3 0x461BCD PUSH1 0xE5 SHL DUP2 MSTORE PUSH1 0x20 PUSH1 0x4 DUP3 ADD MSTORE PUSH1 0x26 PUSH1 0x24 DUP3 ADD MSTORE PUSH32 0x45524332303A207472616E7366657220616D6F756E7420657863656564732062 PUSH1 0x44 DUP3 ADD MSTORE PUSH6 0x616C616E6365 PUSH1 0xD0 SHL PUSH1 0x64 DUP3 ADD MSTORE PUSH1 0x84 ADD PUSH2 0x65C JUMP JUMPDEST PUSH1 0x1 PUSH1 0x1 PUSH1 0xA0 SHL SUB DUP5 DUP2 AND PUSH1 0x0 DUP2 DUP2 MSTORE PUSH1 0x20 DUP2 DUP2 MSTORE PUSH1 0x40 DUP1 DUP4 KECCAK256 DUP8 DUP8 SUB SWAP1 SSTORE SWAP4 DUP8 AND DUP1 DUP4 MSTORE SWAP2 DUP5 SWAP1 KECCAK256 DUP1 SLOAD DUP8 ADD SWAP1 SSTORE SWAP3 MLOAD DUP6 DUP2 MSTORE SWAP1 SWAP3 PUSH32 0xDDF252AD1BE2C89B69C2B068FC378DAA952BA7F163C4A11628F55A4DF523B3EF SWAP2 ADD PUSH1 0x40 MLOAD DUP1 SWAP2 SUB SWAP1 LOG3 PUSH2 0x119C JUMP JUMPDEST PUSH2 0x1350 DUP3 DUP3 PUSH2 0xB71 JUMP JUMPDEST PUSH2 0x86B JUMPI PUSH1 0x0 DUP3 DUP2 MSTORE PUSH1 0x5 PUSH1 0x20 SWAP1 DUP2 MSTORE PUSH1 0x40 DUP1 DUP4 KECCAK256 PUSH1 0x1 PUSH1 0x1 PUSH1 0xA0 SHL SUB DUP6 AND DUP5 MSTORE SWAP1 SWAP2 MSTORE SWAP1 KECCAK256 DUP1 SLOAD PUSH1 0xFF NOT AND PUSH1 0x1 OR SWAP1 SSTORE PUSH2 0x1388 CALLER SWAP1 JUMP JUMPDEST PUSH1 0x1 PUSH1 0x1 PUSH1 0xA0 SHL SUB AND DUP2 PUSH1 0x1 PUSH1 0x1 PUSH1 0xA0 SHL SUB AND DUP4 PUSH32 0x2F8788117E7EFF1D82E926EC794901D17C78024A50270940304540A733656F0D PUSH1 0x40 MLOAD PUSH1 0x40 MLOAD DUP1 SWAP2 SUB SWAP1 LOG4 POP POP JUMP JUMPDEST PUSH2 0x13D6 DUP3 DUP3 PUSH2 0xB71 JUMP JUMPDEST ISZERO PUSH2 0x86B JUMPI PUSH1 0x0 DUP3 DUP2 MSTORE PUSH1 0x5 PUSH1 0x20 SWAP1 DUP2 MSTORE PUSH1 0x40 DUP1 DUP4 KECCAK256 PUSH1 0x1 PUSH1 0x1 PUSH1 0xA0 SHL SUB DUP6 AND DUP1 DUP6 MSTORE SWAP3 MSTORE DUP1 DUP4 KECCAK256 DUP1 SLOAD PUSH1 0xFF NOT AND SWAP1 SSTORE MLOAD CALLER SWAP3 DUP6 SWAP2 PUSH32 0xF6391F5C32D9C69D2A47EA670B442974B53935D1EDC7FD64EB21E047A839171B SWAP2 SWAP1 LOG4 POP POP JUMP JUMPDEST PUSH1 0x1 PUSH1 0x1 PUSH1 0xA0 SHL SUB DUP3 AND PUSH2 0x1489 JUMPI PUSH1 0x40 MLOAD PUSH3 0x461BCD PUSH1 0xE5 SHL DUP2 MSTORE PUSH1 0x20 PUSH1 0x4 DUP3 ADD MSTORE PUSH1 0x1F PUSH1 0x24 DUP3 ADD MSTORE PUSH32 0x45524332303A206D696E7420746F20746865207A65726F206164647265737300 PUSH1 0x44 DUP3 ADD MSTORE PUSH1 0x64 ADD PUSH2 0x65C JUMP JUMPDEST DUP1 PUSH1 0x2 PUSH1 0x0 DUP3 DUP3 SLOAD PUSH2 0x149B SWAP2 SWAP1 PUSH2 0x1AB6 JUMP JUMPDEST SWAP1 SWAP2 SSTORE POP POP PUSH1 0x1 PUSH1 0x1 PUSH1 0xA0 SHL SUB DUP3 AND PUSH1 0x0 DUP2 DUP2 MSTORE PUSH1 0x20 DUP2 DUP2 MSTORE PUSH1 0x40 DUP1 DUP4 KECCAK256 DUP1 SLOAD DUP7 ADD SWAP1 SSTORE MLOAD DUP5 DUP2 MSTORE PUSH32 0xDDF252AD1BE2C89B69C2B068FC378DAA952BA7F163C4A11628F55A4DF523B3EF SWAP2 ADD PUSH1 0x40 MLOAD DUP1 SWAP2 SUB SWAP1 LOG3 POP POP JUMP JUMPDEST PUSH2 0x14FC DUP3 DUP3 PUSH2 0xB71 JUMP JUMPDEST PUSH2 0x86B JUMPI PUSH2 0x1509 DUP2 PUSH2 0x154B JUMP JUMPDEST PUSH2 0x1514 DUP4 PUSH1 0x20 PUSH2 0x155D JUMP JUMPDEST PUSH1 0x40 MLOAD PUSH1 0x20 ADD PUSH2 0x1525 SWAP3 SWAP2 SWAP1 PUSH2 0x1B8E JUMP JUMPDEST PUSH1 0x40 DUP1 MLOAD PUSH1 0x1F NOT DUP2 DUP5 SUB ADD DUP2 MSTORE SWAP1 DUP3 SWAP1 MSTORE PUSH3 0x461BCD PUSH1 0xE5 SHL DUP3 MSTORE PUSH2 0x65C SWAP2 PUSH1 0x4 ADD PUSH2 0x177A JUMP JUMPDEST PUSH1 0x60 PUSH2 0x52B PUSH1 0x1 PUSH1 0x1 PUSH1 0xA0 SHL SUB DUP4 AND PUSH1 0x14 JUMPDEST PUSH1 0x60 PUSH1 0x0 PUSH2 0x156C DUP4 PUSH1 0x2 PUSH2 0x1AC9 JUMP JUMPDEST PUSH2 0x1577 SWAP1 PUSH1 0x2 PUSH2 0x1AB6 JUMP JUMPDEST PUSH8 0xFFFFFFFFFFFFFFFF DUP2 GT ISZERO PUSH2 0x158F JUMPI PUSH2 0x158F PUSH2 0x1881 JUMP JUMPDEST PUSH1 0x40 MLOAD SWAP1 DUP1 DUP3 MSTORE DUP1 PUSH1 0x1F ADD PUSH1 0x1F NOT AND PUSH1 0x20 ADD DUP3 ADD PUSH1 0x40 MSTORE DUP1 ISZERO PUSH2 0x15B9 JUMPI PUSH1 0x20 DUP3 ADD DUP2 DUP1 CALLDATASIZE DUP4 CALLDATACOPY ADD SWAP1 POP JUMPDEST POP SWAP1 POP PUSH1 0x3 PUSH1 0xFC SHL DUP2 PUSH1 0x0 DUP2 MLOAD DUP2 LT PUSH2 0x15D4 JUMPI PUSH2 0x15D4 PUSH2 0x1C03 JUMP JUMPDEST PUSH1 0x20 ADD ADD SWAP1 PUSH1 0x1 PUSH1 0x1 PUSH1 0xF8 SHL SUB NOT AND SWAP1 DUP2 PUSH1 0x0 BYTE SWAP1 MSTORE8 POP PUSH1 0xF PUSH1 0xFB SHL DUP2 PUSH1 0x1 DUP2 MLOAD DUP2 LT PUSH2 0x1603 JUMPI PUSH2 0x1603 PUSH2 0x1C03 JUMP JUMPDEST PUSH1 0x20 ADD ADD SWAP1 PUSH1 0x1 PUSH1 0x1 PUSH1 0xF8 SHL SUB NOT AND SWAP1 DUP2 PUSH1 0x0 BYTE SWAP1 MSTORE8 POP PUSH1 0x0 PUSH2 0x1627 DUP5 PUSH1 0x2 PUSH2 0x1AC9 JUMP JUMPDEST PUSH2 0x1632 SWAP1 PUSH1 0x1 PUSH2 0x1AB6 JUMP JUMPDEST SWAP1 POP JUMPDEST PUSH1 0x1 DUP2 GT ISZERO PUSH2 0x16AA JUMPI PUSH16 0x181899199A1A9B1B9C1CB0B131B232B3 PUSH1 0x81 SHL DUP6 PUSH1 0xF AND PUSH1 0x10 DUP2 LT PUSH2 0x1666 JUMPI PUSH2 0x1666 PUSH2 0x1C03 JUMP JUMPDEST BYTE PUSH1 0xF8 SHL DUP3 DUP3 DUP2 MLOAD DUP2 LT PUSH2 0x167C JUMPI PUSH2 0x167C PUSH2 0x1C03 JUMP JUMPDEST PUSH1 0x20 ADD ADD SWAP1 PUSH1 0x1 PUSH1 0x1 PUSH1 0xF8 SHL SUB NOT AND SWAP1 DUP2 PUSH1 0x0 BYTE SWAP1 MSTORE8 POP PUSH1 0x4 SWAP5 SWAP1 SWAP5 SHR SWAP4 PUSH2 0x16A3 DUP2 PUSH2 0x1C19 JUMP JUMPDEST SWAP1 POP PUSH2 0x1635 JUMP JUMPDEST POP DUP4 ISZERO PUSH2 0x16F9 JUMPI PUSH1 0x40 MLOAD PUSH3 0x461BCD PUSH1 0xE5 SHL DUP2 MSTORE PUSH1 0x20 PUSH1 0x4 DUP3 ADD DUP2 SWAP1 MSTORE PUSH1 0x24 DUP3 ADD MSTORE PUSH32 0x537472696E67733A20686578206C656E67746820696E73756666696369656E74 PUSH1 0x44 DUP3 ADD MSTORE PUSH1 0x64 ADD PUSH2 0x65C JUMP JUMPDEST SWAP4 SWAP3 POP POP POP JUMP JUMPDEST PUSH1 0x0 PUSH1 0x20 DUP3 DUP5 SUB SLT ISZERO PUSH2 0x1712 JUMPI PUSH1 0x0 DUP1 REVERT JUMPDEST DUP2 CALLDATALOAD PUSH1 0x1 PUSH1 0x1 PUSH1 0xE0 SHL SUB NOT DUP2 AND DUP2 EQ PUSH2 0x16F9 JUMPI PUSH1 0x0 DUP1 REVERT JUMPDEST PUSH1 0x0 JUMPDEST DUP4 DUP2 LT ISZERO PUSH2 0x1745 JUMPI DUP2 DUP2 ADD MLOAD DUP4 DUP3 ADD MSTORE PUSH1 0x20 ADD PUSH2 0x172D JUMP JUMPDEST POP POP PUSH1 0x0 SWAP2 ADD MSTORE JUMP JUMPDEST PUSH1 0x0 DUP2 MLOAD DUP1 DUP5 MSTORE PUSH2 0x1766 DUP2 PUSH1 0x20 DUP7 ADD PUSH1 0x20 DUP7 ADD PUSH2 0x172A JUMP JUMPDEST PUSH1 0x1F ADD PUSH1 0x1F NOT AND SWAP3 SWAP1 SWAP3 ADD PUSH1 0x20 ADD SWAP3 SWAP2 POP POP JUMP JUMPDEST PUSH1 0x20 DUP2 MSTORE PUSH1 0x0 PUSH2 0x16F9 PUSH1 0x20 DUP4 ADD DUP5 PUSH2 0x174E JUMP JUMPDEST DUP1 CALLDATALOAD PUSH1 0x1 PUSH1 0x1 PUSH1 0xA0 SHL SUB DUP2 AND DUP2 EQ PUSH2 0x17A4 JUMPI PUSH1 0x0 DUP1 REVERT JUMPDEST SWAP2 SWAP1 POP JUMP JUMPDEST PUSH1 0x0 DUP1 PUSH1 0x40 DUP4 DUP6 SUB SLT ISZERO PUSH2 0x17BC JUMPI PUSH1 0x0 DUP1 REVERT JUMPDEST PUSH2 0x17C5 DUP4 PUSH2 0x178D JUMP JUMPDEST SWAP5 PUSH1 0x20 SWAP4 SWAP1 SWAP4 ADD CALLDATALOAD SWAP4 POP POP POP JUMP JUMPDEST PUSH1 0x0 PUSH1 0x20 DUP3 DUP5 SUB SLT ISZERO PUSH2 0x17E5 JUMPI PUSH1 0x0 DUP1 REVERT JUMPDEST PUSH2 0x16F9 DUP3 PUSH2 0x178D JUMP JUMPDEST PUSH4 0x4E487B71 PUSH1 0xE0 SHL PUSH1 0x0 MSTORE PUSH1 0x21 PUSH1 0x4 MSTORE PUSH1 0x24 PUSH1 0x0 REVERT JUMPDEST PUSH1 0x20 DUP2 ADD PUSH1 0x3 DUP4 LT PUSH2 0x1826 JUMPI PUSH4 0x4E487B71 PUSH1 0xE0 SHL PUSH1 0x0 MSTORE PUSH1 0x21 PUSH1 0x4 MSTORE PUSH1 0x24 PUSH1 0x0 REVERT JUMPDEST SWAP2 SWAP1 MSTORE SWAP1 JUMP JUMPDEST PUSH1 0x0 DUP1 PUSH1 0x0 PUSH1 0x60 DUP5 DUP7 SUB SLT ISZERO PUSH2 0x1841 JUMPI PUSH1 0x0 DUP1 REVERT JUMPDEST PUSH2 0x184A DUP5 PUSH2 0x178D JUMP JUMPDEST SWAP3 POP PUSH2 0x1858 PUSH1 0x20 DUP6 ADD PUSH2 0x178D JUMP JUMPDEST SWAP2 POP PUSH1 0x40 DUP5 ADD CALLDATALOAD SWAP1 POP SWAP3 POP SWAP3 POP SWAP3 JUMP JUMPDEST PUSH1 0x0 PUSH1 0x20 DUP3 DUP5 SUB SLT ISZERO PUSH2 0x187A JUMPI PUSH1 0x0 DUP1 REVERT JUMPDEST POP CALLDATALOAD SWAP2 SWAP1 POP JUMP JUMPDEST PUSH4 0x4E487B71 PUSH1 0xE0 SHL PUSH1 0x0 MSTORE PUSH1 0x41 PUSH1 0x4 MSTORE PUSH1 0x24 PUSH1 0x0 REVERT JUMPDEST PUSH1 0x0 DUP3 PUSH1 0x1F DUP4 ADD SLT PUSH2 0x18A8 JUMPI PUSH1 0x0 DUP1 REVERT JUMPDEST DUP2 CALLDATALOAD PUSH8 0xFFFFFFFFFFFFFFFF DUP1 DUP3 GT ISZERO PUSH2 0x18C3 JUMPI PUSH2 0x18C3 PUSH2 0x1881 JUMP JUMPDEST PUSH1 0x40 MLOAD PUSH1 0x1F DUP4 ADD PUSH1 0x1F NOT SWAP1 DUP2 AND PUSH1 0x3F ADD AND DUP2 ADD SWAP1 DUP3 DUP3 GT DUP2 DUP4 LT OR ISZERO PUSH2 0x18EB JUMPI PUSH2 0x18EB PUSH2 0x1881 JUMP JUMPDEST DUP2 PUSH1 0x40 MSTORE DUP4 DUP2 MSTORE DUP7 PUSH1 0x20 DUP6 DUP9 ADD ADD GT ISZERO PUSH2 0x1904 JUMPI PUSH1 0x0 DUP1 REVERT JUMPDEST DUP4 PUSH1 0x20 DUP8 ADD PUSH1 0x20 DUP4 ADD CALLDATACOPY PUSH1 0x0 PUSH1 0x20 DUP6 DUP4 ADD ADD MSTORE DUP1 SWAP5 POP POP POP POP POP SWAP3 SWAP2 POP POP JUMP JUMPDEST PUSH1 0x0 DUP1 PUSH1 0x40 DUP4 DUP6 SUB SLT ISZERO PUSH2 0x1937 JUMPI PUSH1 0x0 DUP1 REVERT JUMPDEST DUP3 CALLDATALOAD PUSH8 0xFFFFFFFFFFFFFFFF DUP2 GT ISZERO PUSH2 0x194E JUMPI PUSH1 0x0 DUP1 REVERT JUMPDEST PUSH2 0x195A DUP6 DUP3 DUP7 ADD PUSH2 0x1897 JUMP JUMPDEST SWAP3 POP POP PUSH2 0x1969 PUSH1 0x20 DUP5 ADD PUSH2 0x178D JUMP JUMPDEST SWAP1 POP SWAP3 POP SWAP3 SWAP1 POP JUMP JUMPDEST PUSH1 0x0 DUP1 PUSH1 0x40 DUP4 DUP6 SUB SLT ISZERO PUSH2 0x1985 JUMPI PUSH1 0x0 DUP1 REVERT JUMPDEST DUP3 CALLDATALOAD SWAP2 POP PUSH2 0x1969 PUSH1 0x20 DUP5 ADD PUSH2 0x178D JUMP JUMPDEST PUSH1 0x0 PUSH1 0x20 DUP3 DUP5 SUB SLT ISZERO PUSH2 0x19A7 JUMPI PUSH1 0x0 DUP1 REVERT JUMPDEST DUP2 CALLDATALOAD PUSH8 0xFFFFFFFFFFFFFFFF DUP2 GT ISZERO PUSH2 0x19BE JUMPI PUSH1 0x0 DUP1 REVERT JUMPDEST PUSH2 0x19CA DUP5 DUP3 DUP6 ADD PUSH2 0x1897 JUMP JUMPDEST SWAP5 SWAP4 POP POP POP POP JUMP JUMPDEST PUSH1 0x0 DUP1 PUSH1 0x40 DUP4 DUP6 SUB SLT ISZERO PUSH2 0x19E5 JUMPI PUSH1 0x0 DUP1 REVERT JUMPDEST PUSH2 0x19EE DUP4 PUSH2 0x178D JUMP JUMPDEST SWAP2 POP PUSH1 0x20 DUP4 ADD CALLDATALOAD PUSH8 0xFFFFFFFFFFFFFFFF DUP2 GT ISZERO PUSH2 0x1A0A JUMPI PUSH1 0x0 DUP1 REVERT JUMPDEST PUSH2 0x1A16 DUP6 DUP3 DUP7 ADD PUSH2 0x1897 JUMP JUMPDEST SWAP2 POP POP SWAP3 POP SWAP3 SWAP1 POP JUMP JUMPDEST PUSH1 0x0 DUP1 PUSH1 0x40 DUP4 DUP6 SUB SLT ISZERO PUSH2 0x1A33 JUMPI PUSH1 0x0 DUP1 REVERT JUMPDEST PUSH2 0x1A3C DUP4 PUSH2 0x178D JUMP JUMPDEST SWAP2 POP PUSH2 0x1969 PUSH1 0x20 DUP5 ADD PUSH2 0x178D JUMP JUMPDEST PUSH1 0x1 DUP2 DUP2 SHR SWAP1 DUP3 AND DUP1 PUSH2 0x1A5E JUMPI PUSH1 0x7F DUP3 AND SWAP2 POP JUMPDEST PUSH1 0x20 DUP3 LT DUP2 SUB PUSH2 0x1A7E JUMPI PUSH4 0x4E487B71 PUSH1 0xE0 SHL PUSH1 0x0 MSTORE PUSH1 0x22 PUSH1 0x4 MSTORE PUSH1 0x24 PUSH1 0x0 REVERT JUMPDEST POP SWAP2 SWAP1 POP JUMP JUMPDEST PUSH1 0x0 DUP3 MLOAD PUSH2 0x1A96 DUP2 DUP5 PUSH1 0x20 DUP8 ADD PUSH2 0x172A JUMP JUMPDEST SWAP2 SWAP1 SWAP2 ADD SWAP3 SWAP2 POP POP JUMP JUMPDEST PUSH4 0x4E487B71 PUSH1 0xE0 SHL PUSH1 0x0 MSTORE PUSH1 0x11 PUSH1 0x4 MSTORE PUSH1 0x24 PUSH1 0x0 REVERT JUMPDEST DUP1 DUP3 ADD DUP1 DUP3 GT ISZERO PUSH2 0x52B JUMPI PUSH2 0x52B PUSH2 0x1AA0 JUMP JUMPDEST DUP1 DUP3 MUL DUP2 ISZERO DUP3 DUP3 DIV DUP5 EQ OR PUSH2 0x52B JUMPI PUSH2 0x52B PUSH2 0x1AA0 JUMP JUMPDEST PUSH1 0x0 DUP3 PUSH2 0x1AFD JUMPI PUSH4 0x4E487B71 PUSH1 0xE0 SHL PUSH1 0x0 MSTORE PUSH1 0x12 PUSH1 0x4 MSTORE PUSH1 0x24 PUSH1 0x0 REVERT JUMPDEST POP DIV SWAP1 JUMP JUMPDEST PUSH1 0x40 DUP2 MSTORE PUSH1 0x0 PUSH2 0x1B15 PUSH1 0x40 DUP4 ADD DUP6 PUSH2 0x174E JUMP JUMPDEST SWAP1 POP DUP3 PUSH1 0x20 DUP4 ADD MSTORE SWAP4 SWAP3 POP POP POP JUMP JUMPDEST DUP1 MLOAD PUSH10 0xFFFFFFFFFFFFFFFFFFFF DUP2 AND DUP2 EQ PUSH2 0x17A4 JUMPI PUSH1 0x0 DUP1 REVERT JUMPDEST PUSH1 0x0 DUP1 PUSH1 0x0 DUP1 PUSH1 0x0 PUSH1 0xA0 DUP7 DUP9 SUB SLT ISZERO PUSH2 0x1B56 JUMPI PUSH1 0x0 DUP1 REVERT JUMPDEST PUSH2 0x1B5F DUP7 PUSH2 0x1B24 JUMP JUMPDEST SWAP5 POP PUSH1 0x20 DUP7 ADD MLOAD SWAP4 POP PUSH1 0x40 DUP7 ADD MLOAD SWAP3 POP PUSH1 0x60 DUP7 ADD MLOAD SWAP2 POP PUSH2 0x1B82 PUSH1 0x80 DUP8 ADD PUSH2 0x1B24 JUMP JUMPDEST SWAP1 POP SWAP3 SWAP6 POP SWAP3 SWAP6 SWAP1 SWAP4 POP JUMP JUMPDEST PUSH32 0x416363657373436F6E74726F6C3A206163636F756E7420000000000000000000 DUP2 MSTORE PUSH1 0x0 DUP4 MLOAD PUSH2 0x1BC6 DUP2 PUSH1 0x17 DUP6 ADD PUSH1 0x20 DUP9 ADD PUSH2 0x172A JUMP JUMPDEST PUSH17 0x1034B99036B4B9B9B4B733903937B6329 PUSH1 0x7D SHL PUSH1 0x17 SWAP2 DUP5 ADD SWAP2 DUP3 ADD MSTORE DUP4 MLOAD PUSH2 0x1BF7 DUP2 PUSH1 0x28 DUP5 ADD PUSH1 0x20 DUP9 ADD PUSH2 0x172A JUMP JUMPDEST ADD PUSH1 0x28 ADD SWAP5 SWAP4 POP POP POP POP JUMP JUMPDEST PUSH4 0x4E487B71 PUSH1 0xE0 SHL PUSH1 0x0 MSTORE PUSH1 0x32 PUSH1 0x4 MSTORE PUSH1 0x24 PUSH1 0x0 REVERT JUMPDEST PUSH1 0x0 DUP2 PUSH2 0x1C28 JUMPI PUSH2 0x1C28 PUSH2 0x1AA0 JUMP JUMPDEST POP PUSH1 0x0 NOT ADD SWAP1 JUMP INVALID LOG4 SWAP9 SMOD KECCAK256 0x5C 0xE4 0xD3 SSTORE MULMOD 0x2E CREATE2 0xA8 LOG1 DUP16 JUMP 0xE8 SWAP2 EXTCODECOPY DELEGATECALL LOG2 ADD 0xFB 0xE2 DUP8 DUP3 JUMPDEST MULMOD JUMP SWAP4 0xC2 OR PUSH22 0xA2646970667358221220369E0405ADB7EC6BE7D5A131 SWAP2 DUP12 0xA9 DELEGATECALL SWAP7 SWAP2 PUSH15 0x71656505EB0A6275F32609C6686473 PUSH16 0x6C63430008140033A264697066735822 SLT KECCAK256 CODESIZE GAS 0xD PUSH18 0x98FEF5F1EB23DBD3E575C5054351DF545797 0xE9 0xC5 CALLDATACOPY PC PUSH14 0x1DCD4098C464736F6C6343000814 STOP CALLER "},"methodIdentifiers":{"ADMIN_ROLE()":"75b238fc","DEFAULT_ADMIN_ROLE()":"a217fddf","approvePledge(address,address)":"234b07e5","assetTokens(address)":"4c36dd5a","assetTokensList(uint256)":"d3bafd04","createAssetToken(string,string,string,string,address)":"a0329830","getAssetTokensCount()":"0ba00e22","getRoleAdmin(bytes32)":"248a9ca3","getUserAssets(address)":"765ff061","getUserAssetsCount(address)":"c769c8fc","grantRole(bytes32,address)":"2f2ff15d","hasRole(bytes32,address)":"91d14854","renounceRole(bytes32,address)":"36568abe","revokeRole(bytes32,address)":"d547741f","supportsInterface(bytes4)":"01ffc9a7","userAssets(address,uint256)":"6a8a69aa"}}}}}