{
  "_format": "hh-sol-artifact-1",
  "contractName": "AssetFactory",
  "sourceName": "contracts/AssetFactory.sol",
  "abi": [
    {
      "inputs": [],
      "stateMutability": "nonpayable",
      "type": "constructor"
    },
    {
      "anonymous": false,
      "inputs": [
        {
          "indexed": false,
          "internalType": "address",
          "name": "tokenAddress",
          "type": "address"
        },
        {
          "indexed": false,
          "internalType": "string",
          "name": "name",
          "type": "string"
        },
        {
          "indexed": false,
          "internalType": "string",
          "name": "symbol",
          "type": "string"
        },
        {
          "indexed": false,
          "internalType": "string",
          "name": "assetType",
          "type": "string"
        },
        {
          "indexed": false,
          "internalType": "string",
          "name": "assetDescription",
          "type": "string"
        }
      ],
      "name": "AssetTokenCreated",
      "type": "event"
    },
    {
      "inputs": [
        {
          "internalType": "uint256",
          "name": "",
          "type": "uint256"
        }
      ],
      "name": "allTokens",
      "outputs": [
        {
          "internalType": "contract AssetToken",
          "name": "",
          "type": "address"
        }
      ],
      "stateMutability": "view",
      "type": "function"
    },
    {
      "inputs": [
        {
          "internalType": "string",
          "name": "_name",
          "type": "string"
        },
        {
          "internalType": "string",
          "name": "_symbol",
          "type": "string"
        },
        {
          "internalType": "address",
          "name": "_admin",
          "type": "address"
        },
        {
          "internalType": "string",
          "name": "_assetType",
          "type": "string"
        },
        {
          "internalType": "string",
          "name": "_assetDescription",
          "type": "string"
        }
      ],
      "name": "createAssetToken",
      "outputs": [
        {
          "internalType": "address",
          "name": "",
          "type": "address"
        }
      ],
      "stateMutability": "nonpayable",
      "type": "function"
    },
    {
      "inputs": [],
      "name": "getAllTokens",
      "outputs": [
        {
          "internalType": "contract AssetToken[]",
          "name": "",
          "type": "address[]"
        }
      ],
      "stateMutability": "view",
      "type": "function"
    },
    {
      "inputs": [],
      "name": "owner",
      "outputs": [
        {
          "internalType": "address",
          "name": "",
          "type": "address"
        }
      ],
      "stateMutability": "view",
      "type": "function"
    }
  ],
  "bytecode": "0x608060405234801561001057600080fd5b50600080546001600160a01b031916331790556127f5806100326000396000f3fe60806040523480156200001157600080fd5b5060043610620000525760003560e01c80632a5c792a1462000057578063634282af14620000795780636b3eefa014620000a95780638da5cb5b14620000c0575b600080fd5b62000061620000d4565b604051620000709190620002a5565b60405180910390f35b620000906200008a366004620002f4565b62000138565b6040516001600160a01b03909116815260200162000070565b62000090620000ba366004620003b9565b62000163565b60005462000090906001600160a01b031681565b606060018054806020026020016040519081016040528092919081815260200182805480156200012e57602002820191906000526020600020905b81546001600160a01b031681526001909101906020018083116200010f575b5050505050905090565b600181815481106200014957600080fd5b6000918252602090912001546001600160a01b0316905081565b600080546001600160a01b03163314620001bb5760405162461bcd60e51b81526020600482015260156024820152744f6e6c79206f776e65722063616e2063726561746560581b604482015260640160405180910390fd5b60008686868686604051620001d09062000297565b620001e0959493929190620004dd565b604051809103906000f080158015620001fd573d6000803e3d6000fd5b506001805480820182556000919091527fb10e2d527612073b26eecdfd717e6a320cf44b4afac2b0732d9fcbe2b7fa0cf60180546001600160a01b0319166001600160a01b0383161790556040519091507f5fc6fc889bb399b71ff0654eeb5157d3d3ac3bd68aa2691a5bb781ab825dae6690620002859083908a908a90899089906200054d565b60405180910390a19695505050505050565b612222806200059e83390190565b6020808252825182820181905260009190848201906040850190845b81811015620002e85783516001600160a01b031683529284019291840191600101620002c1565b50909695505050505050565b6000602082840312156200030757600080fd5b5035919050565b634e487b7160e01b600052604160045260246000fd5b600082601f8301126200033657600080fd5b813567ffffffffffffffff808211156200035457620003546200030e565b604051601f8301601f19908116603f011681019082821181831017156200037f576200037f6200030e565b816040528381528660208588010111156200039957600080fd5b836020870160208301376000602085830101528094505050505092915050565b600080600080600060a08688031215620003d257600080fd5b853567ffffffffffffffff80821115620003eb57600080fd5b620003f989838a0162000324565b965060208801359150808211156200041057600080fd5b6200041e89838a0162000324565b9550604088013591506001600160a01b03821682146200043d57600080fd5b909350606087013590808211156200045457600080fd5b6200046289838a0162000324565b935060808801359150808211156200047957600080fd5b50620004888882890162000324565b9150509295509295909350565b6000815180845260005b81811015620004bd576020818501810151868301820152016200049f565b506000602082860101526020601f19601f83011685010191505092915050565b60a081526000620004f260a083018862000495565b828103602084015262000506818862000495565b6001600160a01b0387166040850152838103606085015290506200052b818662000495565b9050828103608084015262000541818562000495565b98975050505050505050565b6001600160a01b038616815260a060208201819052600090620005739083018762000495565b828103604084015262000587818762000495565b905082810360608401526200052b81866200049556fe60806040523480156200001157600080fd5b506040516200222238038062002222833981016040819052620000349162000253565b84846003620000448382620003bd565b506004620000538282620003bd565b505060016006555062000068600084620000e9565b620000947fa49807205ce4d355092ef5a8a18f56e8913cf4a201fbe287825b095693c2177584620000e9565b620000c07f9f2df0fed2c77648de5860a4cc508cd0818c85b8b8a1ab4ceeef8d981c8956a684620000e9565b6007620000ce8382620003bd565b506008620000dd8282620003bd565b50505050505062000489565b60008281526005602090815260408083206001600160a01b038516845290915290205460ff166200018a5760008281526005602090815260408083206001600160a01b03851684529091529020805460ff19166001179055620001493390565b6001600160a01b0316816001600160a01b0316837f2f8788117e7eff1d82e926ec794901d17c78024a50270940304540a733656f0d60405160405180910390a45b5050565b634e487b7160e01b600052604160045260246000fd5b600082601f830112620001b657600080fd5b81516001600160401b0380821115620001d357620001d36200018e565b604051601f8301601f19908116603f01168101908282118183101715620001fe57620001fe6200018e565b816040528381526020925086838588010111156200021b57600080fd5b600091505b838210156200023f578582018301518183018401529082019062000220565b600093810190920192909252949350505050565b600080600080600060a086880312156200026c57600080fd5b85516001600160401b03808211156200028457600080fd5b6200029289838a01620001a4565b96506020880151915080821115620002a957600080fd5b620002b789838a01620001a4565b604089015190965091506001600160a01b0382168214620002d757600080fd5b606088015191945080821115620002ed57600080fd5b620002fb89838a01620001a4565b935060808801519150808211156200031257600080fd5b506200032188828901620001a4565b9150509295509295909350565b600181811c908216806200034357607f821691505b6020821081036200036457634e487b7160e01b600052602260045260246000fd5b50919050565b601f821115620003b857600081815260208120601f850160051c81016020861015620003935750805b601f850160051c820191505b81811015620003b4578281556001016200039f565b5050505b505050565b81516001600160401b03811115620003d957620003d96200018e565b620003f181620003ea84546200032e565b846200036a565b602080601f831160018114620004295760008415620004105750858301515b600019600386901b1c1916600185901b178555620003b4565b600085815260208120601f198616915b828110156200045a5788860151825594840194600190910190840162000439565b5085821015620004795787850151600019600388901b60f8161c191681555b5050505050600190811b01905550565b611d8980620004996000396000f3fe608060405234801561001057600080fd5b50600436106102065760003560e01c806370a082311161011a57806395d89b41116100ad578063a9059cbb1161007c578063a9059cbb146104a5578063d5391393146104b8578063d547741f146104df578063dd62ed3e146104f2578063f66a1b711461050557600080fd5b806395d89b411461046f57806397bbb76114610477578063a217fddf1461048a578063a457c2d71461049257600080fd5b8063847466be116100e9578063847466be146103f5578063892d86cd1461044157806391d1485414610454578063938626c21461046757600080fd5b806370a082311461038457806375b238fc146103ad57806376e7db5d146103c257806379cc6790146103e257600080fd5b80632970fdfa1161019d578063395093511161016c57806339509351146103305780633fe3347a1461034357806340c10f191461034b57806342966c681461035e5780636ed6132e1461037157600080fd5b80632970fdfa146102e85780632f2ff15d146102fb578063313ce5671461030e57806336568abe1461031d57600080fd5b8063118ff3dc116101d9578063118ff3dc1461027057806318160ddd146102a057806323b872dd146102b2578063248a9ca3146102c557600080fd5b806301ffc9a71461020b57806306fdde0314610233578063095ea7b3146102485780630d1118ce1461025b575b600080fd5b61021e610219366004611803565b610518565b60405190151581526020015b60405180910390f35b61023b61054f565b60405161022a919061187d565b61021e6102563660046118ac565b6105e1565b61026e6102693660046118ac565b6105f9565b005b61029361027e3660046118d6565b600b6020526000908152604090205460ff1681565b60405161022a9190611907565b6002545b60405190815260200161022a565b61021e6102c036600461192f565b6106df565b6102a46102d336600461196b565b60009081526005602052604090206001015490565b61026e6102f6366004611a27565b610703565b61026e610309366004611a75565b6107ea565b6040516012815260200161022a565b61026e61032b366004611a75565b61080f565b61021e61033e3660046118ac565b61088d565b61023b6108af565b61026e6103593660046118ac565b61093d565b61026e61036c36600461196b565b6109a7565b61026e61037f3660046118ac565b6109b4565b6102a46103923660046118d6565b6001600160a01b031660009081526020819052604090205490565b6102a4600080516020611d3483398151915281565b6102a46103d03660046118d6565b600a6020526000908152604090205481565b61026e6103f03660046118ac565b610a99565b610429610403366004611a98565b80516020818301810180516009825292820191909301209152546001600160a01b031681565b6040516001600160a01b03909116815260200161022a565b61026e61044f3660046118d6565b610aae565b61021e610462366004611a75565b610c74565b61023b610c9f565b61023b610cac565b61026e610485366004611ad5565b610cbb565b6102a4600081565b61021e6104a03660046118ac565b610da7565b61021e6104b33660046118ac565b610e22565b6102a47f9f2df0fed2c77648de5860a4cc508cd0818c85b8b8a1ab4ceeef8d981c8956a681565b61026e6104ed366004611a75565b610e30565b6102a4610500366004611b23565b610e55565b6102a4610513366004611a98565b610e80565b60006001600160e01b03198216637965db0b60e01b148061054957506301ffc9a760e01b6001600160e01b03198316145b92915050565b60606003805461055e90611b4d565b80601f016020809104026020016040519081016040528092919081815260200182805461058a90611b4d565b80156105d75780601f106105ac576101008083540402835291602001916105d7565b820191906000526020600020905b8154815290600101906020018083116105ba57829003601f168201915b5050505050905090565b6000336105ef818585610f72565b5060019392505050565b600080516020611d3483398151915261061181611096565b6106196110a0565b81610639846001600160a01b031660009081526020819052604090205490565b10156106835760405162461bcd60e51b8152602060048201526014602482015273496e73756666696369656e742062616c616e636560601b60448201526064015b60405180910390fd5b61068d83836110f9565b826001600160a01b03167ffd38818f5291bf0bb3a2a48aadc06ba8757865d1dabd804585338aab3009dcb6836040516106c891815260200190565b60405180910390a26106da6001600655565b505050565b6000336106ed85828561122b565b6106f88585856112a5565b506001949350505050565b600080516020611d3483398151915261071b81611096565b6001600160a01b03821661076a5760405162461bcd60e51b8152602060048201526016602482015275496e76616c6964206f7261636c65206164647265737360501b604482015260640161067a565b8160098460405161077b9190611b87565b90815260405190819003602001812080546001600160a01b039384166001600160a01b0319909116179055908316906107b5908590611b87565b604051908190038120907f967dce4bd9f1ee4acd36a0df26aa5e6f63729594fe418b495116e30465f39fb090600090a3505050565b60008281526005602052604090206001015461080581611096565b6106da8383611449565b6001600160a01b038116331461087f5760405162461bcd60e51b815260206004820152602f60248201527f416363657373436f6e74726f6c3a2063616e206f6e6c792072656e6f756e636560448201526e103937b632b9903337b91039b2b63360891b606482015260840161067a565b61088982826114cf565b5050565b6000336105ef8185856108a08383610e55565b6108aa9190611bb9565b610f72565b600780546108bc90611b4d565b80601f01602080910402602001604051908101604052809291908181526020018280546108e890611b4d565b80156109355780601f1061090a57610100808354040283529160200191610935565b820191906000526020600020905b81548152906001019060200180831161091857829003601f168201915b505050505081565b600080516020611d3483398151915261095581611096565b61095f8383611536565b826001600160a01b03167f3f2c9d57c068687834f0de942a9babb9e5acab57d516d3480a3c16ee165a42738360405161099a91815260200190565b60405180910390a2505050565b6109b133826110f9565b50565b7f9f2df0fed2c77648de5860a4cc508cd0818c85b8b8a1ab4ceeef8d981c8956a66109de81611096565b816109fe846001600160a01b031660009081526020819052604090205490565b1015610a4c5760405162461bcd60e51b815260206004820152601c60248201527f496e73756666696369656e742062616c616e636520746f206275726e00000000604482015260640161067a565b826001600160a01b03167ffd38818f5291bf0bb3a2a48aadc06ba8757865d1dabd804585338aab3009dcb683604051610a8791815260200190565b60405180910390a26106da83836110f9565b610aa482338361122b565b61088982826110f9565b600080516020611d34833981519152610ac681611096565b610ace6110a0565b6001600160a01b0382166000908152600b602052604081205460ff166002811115610afb57610afb6118f1565b14610b3d5760405162461bcd60e51b8152602060048201526012602482015271506c65646765206e6f742070656e64696e6760701b604482015260640161067a565b6001600160a01b0382166000908152600a6020526040812054610b6890670de0b6b3a7640000611bcc565b905060008111610bac5760405162461bcd60e51b815260206004820152600f60248201526e139bdd1a1a5b99c81d1bc81b5a5b9d608a1b604482015260640161067a565b6001600160a01b0383166000908152600b60209081526040808320805460ff19166001179055600a909152812055610be48382611536565b826001600160a01b03167f6f91d59d667773922f9bb90ddd04cc0de7a8732ecd544057caebd05a0edf349a6001604051610c1e9190611907565b60405180910390a2826001600160a01b03167f3f2c9d57c068687834f0de942a9babb9e5acab57d516d3480a3c16ee165a427382604051610c6191815260200190565b60405180910390a2506108896001600655565b60009182526005602090815260408084206001600160a01b0393909316845291905290205460ff1690565b600880546108bc90611b4d565b60606004805461055e90611b4d565b600080516020611d34833981519152610cd381611096565b6000610cde83610e80565b905060008113610d255760405162461bcd60e51b8152602060048201526012602482015271496e76616c6964206c69766520707269636560701b604482015260640161067a565b6000610d356305f5e10083611be3565b6001600160a01b0386166000818152600a60209081526040808320859055600b90915290819020805460ff1916905551919250907f0e8e63e19af45bef870f39c8c03c00c46a25eb15d530b4cda64442d25643e8d390610d989087908590611c05565b60405180910390a25050505050565b60003381610db58286610e55565b905083811015610e155760405162461bcd60e51b815260206004820152602560248201527f45524332303a2064656372656173656420616c6c6f77616e63652062656c6f77604482015264207a65726f60d81b606482015260840161067a565b6106f88286868403610f72565b6000336105ef8185856112a5565b600082815260056020526040902060010154610e4b81611096565b6106da83836114cf565b6001600160a01b03918216600090815260016020908152604080832093909416825291909152205490565b600080600983604051610e939190611b87565b908152604051908190036020019020546001600160a01b0316905080610efb5760405162461bcd60e51b815260206004820152601d60248201527f4f7261636c65206e6f742073657420666f722061737365742074797065000000604482015260640161067a565b60008190506000816001600160a01b031663feaf968c6040518163ffffffff1660e01b815260040160a060405180830381865afa158015610f40573d6000803e3d6000fd5b505050506040513d601f19601f82011682018060405250810190610f649190611c41565b509198975050505050505050565b6001600160a01b038316610fd45760405162461bcd60e51b8152602060048201526024808201527f45524332303a20617070726f76652066726f6d20746865207a65726f206164646044820152637265737360e01b606482015260840161067a565b6001600160a01b0382166110355760405162461bcd60e51b815260206004820152602260248201527f45524332303a20617070726f766520746f20746865207a65726f206164647265604482015261737360f01b606482015260840161067a565b6001600160a01b0383811660008181526001602090815260408083209487168084529482529182902085905590518481527f8c5be1e5ebec7d5bd14f71427d1e84f3dd0314c0f7b2291e5b200ac8c7c3b925910160405180910390a3505050565b6109b181336115f5565b6002600654036110f25760405162461bcd60e51b815260206004820152601f60248201527f5265656e7472616e637947756172643a207265656e7472616e742063616c6c00604482015260640161067a565b6002600655565b6001600160a01b0382166111595760405162461bcd60e51b815260206004820152602160248201527f45524332303a206275726e2066726f6d20746865207a65726f206164647265736044820152607360f81b606482015260840161067a565b6001600160a01b038216600090815260208190526040902054818110156111cd5760405162461bcd60e51b815260206004820152602260248201527f45524332303a206275726e20616d6f756e7420657863656564732062616c616e604482015261636560f01b606482015260840161067a565b6001600160a01b0383166000818152602081815260408083208686039055600280548790039055518581529192917fddf252ad1be2c89b69c2b068fc378daa952ba7f163c4a11628f55a4df523b3ef910160405180910390a3505050565b60006112378484610e55565b9050600019811461129f57818110156112925760405162461bcd60e51b815260206004820152601d60248201527f45524332303a20696e73756666696369656e7420616c6c6f77616e6365000000604482015260640161067a565b61129f8484848403610f72565b50505050565b6001600160a01b0383166113095760405162461bcd60e51b815260206004820152602560248201527f45524332303a207472616e736665722066726f6d20746865207a65726f206164604482015264647265737360d81b606482015260840161067a565b6001600160a01b03821661136b5760405162461bcd60e51b815260206004820152602360248201527f45524332303a207472616e7366657220746f20746865207a65726f206164647260448201526265737360e81b606482015260840161067a565b6001600160a01b038316600090815260208190526040902054818110156113e35760405162461bcd60e51b815260206004820152602660248201527f45524332303a207472616e7366657220616d6f756e7420657863656564732062604482015265616c616e636560d01b606482015260840161067a565b6001600160a01b03848116600081815260208181526040808320878703905593871680835291849020805487019055925185815290927fddf252ad1be2c89b69c2b068fc378daa952ba7f163c4a11628f55a4df523b3ef910160405180910390a361129f565b6114538282610c74565b6108895760008281526005602090815260408083206001600160a01b03851684529091529020805460ff1916600117905561148b3390565b6001600160a01b0316816001600160a01b0316837f2f8788117e7eff1d82e926ec794901d17c78024a50270940304540a733656f0d60405160405180910390a45050565b6114d98282610c74565b156108895760008281526005602090815260408083206001600160a01b0385168085529252808320805460ff1916905551339285917ff6391f5c32d9c69d2a47ea670b442974b53935d1edc7fd64eb21e047a839171b9190a45050565b6001600160a01b03821661158c5760405162461bcd60e51b815260206004820152601f60248201527f45524332303a206d696e7420746f20746865207a65726f206164647265737300604482015260640161067a565b806002600082825461159e9190611bb9565b90915550506001600160a01b038216600081815260208181526040808320805486019055518481527fddf252ad1be2c89b69c2b068fc378daa952ba7f163c4a11628f55a4df523b3ef910160405180910390a35050565b6115ff8282610c74565b6108895761160c8161164e565b611617836020611660565b604051602001611628929190611c91565b60408051601f198184030181529082905262461bcd60e51b825261067a9160040161187d565b60606105496001600160a01b03831660145b6060600061166f836002611bcc565b61167a906002611bb9565b67ffffffffffffffff81111561169257611692611984565b6040519080825280601f01601f1916602001820160405280156116bc576020820181803683370190505b509050600360fc1b816000815181106116d7576116d7611d06565b60200101906001600160f81b031916908160001a905350600f60fb1b8160018151811061170657611706611d06565b60200101906001600160f81b031916908160001a905350600061172a846002611bcc565b611735906001611bb9565b90505b60018111156117ad576f181899199a1a9b1b9c1cb0b131b232b360811b85600f166010811061176957611769611d06565b1a60f81b82828151811061177f5761177f611d06565b60200101906001600160f81b031916908160001a90535060049490941c936117a681611d1c565b9050611738565b5083156117fc5760405162461bcd60e51b815260206004820181905260248201527f537472696e67733a20686578206c656e67746820696e73756666696369656e74604482015260640161067a565b9392505050565b60006020828403121561181557600080fd5b81356001600160e01b0319811681146117fc57600080fd5b60005b83811015611848578181015183820152602001611830565b50506000910152565b6000815180845261186981602086016020860161182d565b601f01601f19169290920160200192915050565b6020815260006117fc6020830184611851565b80356001600160a01b03811681146118a757600080fd5b919050565b600080604083850312156118bf57600080fd5b6118c883611890565b946020939093013593505050565b6000602082840312156118e857600080fd5b6117fc82611890565b634e487b7160e01b600052602160045260246000fd5b602081016003831061192957634e487b7160e01b600052602160045260246000fd5b91905290565b60008060006060848603121561194457600080fd5b61194d84611890565b925061195b60208501611890565b9150604084013590509250925092565b60006020828403121561197d57600080fd5b5035919050565b634e487b7160e01b600052604160045260246000fd5b600082601f8301126119ab57600080fd5b813567ffffffffffffffff808211156119c6576119c6611984565b604051601f8301601f19908116603f011681019082821181831017156119ee576119ee611984565b81604052838152866020858801011115611a0757600080fd5b836020870160208301376000602085830101528094505050505092915050565b60008060408385031215611a3a57600080fd5b823567ffffffffffffffff811115611a5157600080fd5b611a5d8582860161199a565b925050611a6c60208401611890565b90509250929050565b60008060408385031215611a8857600080fd5b82359150611a6c60208401611890565b600060208284031215611aaa57600080fd5b813567ffffffffffffffff811115611ac157600080fd5b611acd8482850161199a565b949350505050565b60008060408385031215611ae857600080fd5b611af183611890565b9150602083013567ffffffffffffffff811115611b0d57600080fd5b611b198582860161199a565b9150509250929050565b60008060408385031215611b3657600080fd5b611b3f83611890565b9150611a6c60208401611890565b600181811c90821680611b6157607f821691505b602082108103611b8157634e487b7160e01b600052602260045260246000fd5b50919050565b60008251611b9981846020870161182d565b9190910192915050565b634e487b7160e01b600052601160045260246000fd5b8082018082111561054957610549611ba3565b808202811582820484141761054957610549611ba3565b600082611c0057634e487b7160e01b600052601260045260246000fd5b500490565b604081526000611c186040830185611851565b90508260208301529392505050565b805169ffffffffffffffffffff811681146118a757600080fd5b600080600080600060a08688031215611c5957600080fd5b611c6286611c27565b9450602086015193506040860151925060608601519150611c8560808701611c27565b90509295509295909350565b7f416363657373436f6e74726f6c3a206163636f756e7420000000000000000000815260008351611cc981601785016020880161182d565b7001034b99036b4b9b9b4b733903937b6329607d1b6017918401918201528351611cfa81602884016020880161182d565b01602801949350505050565b634e487b7160e01b600052603260045260246000fd5b600081611d2b57611d2b611ba3565b50600019019056fea49807205ce4d355092ef5a8a18f56e8913cf4a201fbe287825b095693c21775a26469706673582212208145814cebb0ce37316a01a9eae26c7661f4f2e734cd2c5bf296a898f72acec364736f6c63430008140033a2646970667358221220f6dfec768501222aae8e621a55a82d16e7a7e50b38d9010993f33b6f11c3e20064736f6c63430008140033",
  "linkReferences": {},
  "deployedLinkReferences": {}
}