{
  "_format": "hh-sol-artifact-1",
  "contractName": "SwapFacility",
  "sourceName": "contracts/SwapFacility.sol",
  "abi": [
    {
      "inputs": [
        {
          "internalType": "address",
          "name": "admin",
          "type": "address"
        }
      ],
      "stateMutability": "nonpayable",
      "type": "constructor"
    },
    {
      "anonymous": false,
      "inputs": [
        {
          "indexed": true,
          "internalType": "address",
          "name": "token",
          "type": "address"
        },
        {
          "indexed": true,
          "internalType": "address",
          "name": "oracle",
          "type": "address"
        }
      ],
      "name": "OracleSet",
      "type": "event"
    },
    {
      "anonymous": false,
      "inputs": [
        {
          "indexed": true,
          "internalType": "bytes32",
          "name": "role",
          "type": "bytes32"
        },
        {
          "indexed": true,
          "internalType": "bytes32",
          "name": "previousAdminRole",
          "type": "bytes32"
        },
        {
          "indexed": true,
          "internalType": "bytes32",
          "name": "newAdminRole",
          "type": "bytes32"
        }
      ],
      "name": "RoleAdminChanged",
      "type": "event"
    },
    {
      "anonymous": false,
      "inputs": [
        {
          "indexed": true,
          "internalType": "bytes32",
          "name": "role",
          "type": "bytes32"
        },
        {
          "indexed": true,
          "internalType": "address",
          "name": "account",
          "type": "address"
        },
        {
          "indexed": true,
          "internalType": "address",
          "name": "sender",
          "type": "address"
        }
      ],
      "name": "RoleGranted",
      "type": "event"
    },
    {
      "anonymous": false,
      "inputs": [
        {
          "indexed": true,
          "internalType": "bytes32",
          "name": "role",
          "type": "bytes32"
        },
        {
          "indexed": true,
          "internalType": "address",
          "name": "account",
          "type": "address"
        },
        {
          "indexed": true,
          "internalType": "address",
          "name": "sender",
          "type": "address"
        }
      ],
      "name": "RoleRevoked",
      "type": "event"
    },
    {
      "anonymous": false,
      "inputs": [
        {
          "indexed": true,
          "internalType": "address",
          "name": "user",
          "type": "address"
        },
        {
          "indexed": true,
          "internalType": "address",
          "name": "token",
          "type": "address"
        },
        {
          "indexed": false,
          "internalType": "uint256",
          "name": "tokenAmount",
          "type": "uint256"
        },
        {
          "indexed": false,
          "internalType": "uint256",
          "name": "bnbAmount",
          "type": "uint256"
        }
      ],
      "name": "Swapped",
      "type": "event"
    },
    {
      "anonymous": false,
      "inputs": [
        {
          "indexed": true,
          "internalType": "address",
          "name": "user",
          "type": "address"
        },
        {
          "indexed": true,
          "internalType": "address",
          "name": "token",
          "type": "address"
        },
        {
          "indexed": false,
          "internalType": "uint256",
          "name": "amount",
          "type": "uint256"
        }
      ],
      "name": "TokenLocked",
      "type": "event"
    },
    {
      "anonymous": false,
      "inputs": [
        {
          "indexed": true,
          "internalType": "address",
          "name": "token",
          "type": "address"
        }
      ],
      "name": "TokenWhitelisted",
      "type": "event"
    },
    {
      "inputs": [],
      "name": "ADMIN_ROLE",
      "outputs": [
        {
          "internalType": "bytes32",
          "name": "",
          "type": "bytes32"
        }
      ],
      "stateMutability": "view",
      "type": "function"
    },
    {
      "inputs": [],
      "name": "DEFAULT_ADMIN_ROLE",
      "outputs": [
        {
          "internalType": "bytes32",
          "name": "",
          "type": "bytes32"
        }
      ],
      "stateMutability": "view",
      "type": "function"
    },
    {
      "inputs": [
        {
          "internalType": "address",
          "name": "token",
          "type": "address"
        }
      ],
      "name": "addAllowedToken",
      "outputs": [],
      "stateMutability": "nonpayable",
      "type": "function"
    },
    {
      "inputs": [
        {
          "internalType": "address",
          "name": "",
          "type": "address"
        }
      ],
      "name": "allowedTokens",
      "outputs": [
        {
          "internalType": "bool",
          "name": "",
          "type": "bool"
        }
      ],
      "stateMutability": "view",
      "type": "function"
    },
    {
      "inputs": [
        {
          "internalType": "address",
          "name": "token",
          "type": "address"
        },
        {
          "internalType": "uint256",
          "name": "tokenAmount",
          "type": "uint256"
        }
      ],
      "name": "getBNBAmountForToken",
      "outputs": [
        {
          "internalType": "uint256",
          "name": "",
          "type": "uint256"
        }
      ],
      "stateMutability": "view",
      "type": "function"
    },
    {
      "inputs": [
        {
          "internalType": "bytes32",
          "name": "role",
          "type": "bytes32"
        }
      ],
      "name": "getRoleAdmin",
      "outputs": [
        {
          "internalType": "bytes32",
          "name": "",
          "type": "bytes32"
        }
      ],
      "stateMutability": "view",
      "type": "function"
    },
    {
      "inputs": [
        {
          "internalType": "bytes32",
          "name": "role",
          "type": "bytes32"
        },
        {
          "internalType": "address",
          "name": "account",
          "type": "address"
        }
      ],
      "name": "grantRole",
      "outputs": [],
      "stateMutability": "nonpayable",
      "type": "function"
    },
    {
      "inputs": [
        {
          "internalType": "bytes32",
          "name": "role",
          "type": "bytes32"
        },
        {
          "internalType": "address",
          "name": "account",
          "type": "address"
        }
      ],
      "name": "hasRole",
      "outputs": [
        {
          "internalType": "bool",
          "name": "",
          "type": "bool"
        }
      ],
      "stateMutability": "view",
      "type": "function"
    },
    {
      "inputs": [
        {
          "internalType": "bytes32",
          "name": "role",
          "type": "bytes32"
        },
        {
          "internalType": "address",
          "name": "account",
          "type": "address"
        }
      ],
      "name": "renounceRole",
      "outputs": [],
      "stateMutability": "nonpayable",
      "type": "function"
    },
    {
      "inputs": [
        {
          "internalType": "bytes32",
          "name": "role",
          "type": "bytes32"
        },
        {
          "internalType": "address",
          "name": "account",
          "type": "address"
        }
      ],
      "name": "revokeRole",
      "outputs": [],
      "stateMutability": "nonpayable",
      "type": "function"
    },
    {
      "inputs": [
        {
          "internalType": "address",
          "name": "token",
          "type": "address"
        },
        {
          "internalType": "address",
          "name": "oracle",
          "type": "address"
        }
      ],
      "name": "setTokenOracle",
      "outputs": [],
      "stateMutability": "nonpayable",
      "type": "function"
    },
    {
      "inputs": [
        {
          "internalType": "bytes4",
          "name": "interfaceId",
          "type": "bytes4"
        }
      ],
      "name": "supportsInterface",
      "outputs": [
        {
          "internalType": "bool",
          "name": "",
          "type": "bool"
        }
      ],
      "stateMutability": "view",
      "type": "function"
    },
    {
      "inputs": [
        {
          "internalType": "address",
          "name": "token",
          "type": "address"
        },
        {
          "internalType": "uint256",
          "name": "amount",
          "type": "uint256"
        }
      ],
      "name": "swapTokenForBNB",
      "outputs": [],
      "stateMutability": "nonpayable",
      "type": "function"
    },
    {
      "inputs": [
        {
          "internalType": "address",
          "name": "",
          "type": "address"
        }
      ],
      "name": "tokenOracles",
      "outputs": [
        {
          "internalType": "contract AggregatorV3Interface",
          "name": "",
          "type": "address"
        }
      ],
      "stateMutability": "view",
      "type": "function"
    },
    {
      "stateMutability": "payable",
      "type": "receive"
    }
  ],
  "bytecode": "0x608060405234801561001057600080fd5b5060405161133f38038061133f83398101604081905261002f9161010d565b6001805561003e60008261006e565b6100687fa49807205ce4d355092ef5a8a18f56e8913cf4a201fbe287825b095693c217758261006e565b5061013d565b6000828152602081815260408083206001600160a01b038516845290915290205460ff16610109576000828152602081815260408083206001600160a01b03851684529091529020805460ff191660011790556100c83390565b6001600160a01b0316816001600160a01b0316837f2f8788117e7eff1d82e926ec794901d17c78024a50270940304540a733656f0d60405160405180910390a45b5050565b60006020828403121561011f57600080fd5b81516001600160a01b038116811461013657600080fd5b9392505050565b6111f38061014c6000396000f3fe6080604052600436106100e15760003560e01c806391d148541161007f578063c1f0dc5611610059578063c1f0dc5614610299578063d547741f146102b9578063da465817146102d9578063e744092e146102f957600080fd5b806391d1485414610216578063a217fddf14610236578063bd4924321461024b57600080fd5b806336568abe116100bb57806336568abe146101825780634178617f146101a257806375b238fc146101c2578063764467cc146101f657600080fd5b806301ffc9a7146100ed578063248a9ca3146101225780632f2ff15d1461016057600080fd5b366100e857005b600080fd5b3480156100f957600080fd5b5061010d610108366004610ead565b610329565b60405190151581526020015b60405180910390f35b34801561012e57600080fd5b5061015261013d366004610ed7565b60009081526020819052604090206001015490565b604051908152602001610119565b34801561016c57600080fd5b5061018061017b366004610f0c565b610360565b005b34801561018e57600080fd5b5061018061019d366004610f0c565b61038a565b3480156101ae57600080fd5b506101806101bd366004610f38565b61040d565b3480156101ce57600080fd5b506101527fa49807205ce4d355092ef5a8a18f56e8913cf4a201fbe287825b095693c2177581565b34801561020257600080fd5b50610180610211366004610f53565b6104d2565b34801561022257600080fd5b5061010d610231366004610f0c565b6105e1565b34801561024257600080fd5b50610152600081565b34801561025757600080fd5b50610281610266366004610f38565b6003602052600090815260409020546001600160a01b031681565b6040516001600160a01b039091168152602001610119565b3480156102a557600080fd5b506101526102b4366004610f7d565b61060a565b3480156102c557600080fd5b506101806102d4366004610f0c565b6107a2565b3480156102e557600080fd5b506101806102f4366004610f7d565b6107c7565b34801561030557600080fd5b5061010d610314366004610f38565b60026020526000908152604090205460ff1681565b60006001600160e01b03198216637965db0b60e01b148061035a57506301ffc9a760e01b6001600160e01b03198316145b92915050565b60008281526020819052604090206001015461037b81610b50565b6103858383610b5d565b505050565b6001600160a01b03811633146103ff5760405162461bcd60e51b815260206004820152602f60248201527f416363657373436f6e74726f6c3a2063616e206f6e6c792072656e6f756e636560448201526e103937b632b9903337b91039b2b63360891b60648201526084015b60405180910390fd5b6104098282610be1565b5050565b7fa49807205ce4d355092ef5a8a18f56e8913cf4a201fbe287825b095693c2177561043781610b50565b6001600160a01b0382166104855760405162461bcd60e51b8152602060048201526015602482015274496e76616c696420746f6b656e206164647265737360581b60448201526064016103f6565b6001600160a01b038216600081815260026020526040808220805460ff19166001179055517f6a65f90b1a644d2faac467a21e07e50e3f8fa5846e26231d30ae79a417d3d2629190a25050565b7fa49807205ce4d355092ef5a8a18f56e8913cf4a201fbe287825b095693c217756104fc81610b50565b6001600160a01b0383166105425760405162461bcd60e51b815260206004820152600d60248201526c24b73b30b634b2103a37b5b2b760991b60448201526064016103f6565b6001600160a01b0382166105895760405162461bcd60e51b815260206004820152600e60248201526d496e76616c6964206f7261636c6560901b60448201526064016103f6565b6001600160a01b0383811660008181526003602052604080822080546001600160a01b0319169487169485179055517fc1d3048301c0d23629a2532c8defa6d68f8e1a0e4157918769e9fb1b2eeb888e9190a3505050565b6000918252602082815260408084206001600160a01b0393909316845291905290205460ff1690565b6001600160a01b03821660009081526002602052604081205460ff166106665760405162461bcd60e51b8152602060048201526011602482015270151bdad95b881b9bdd08185b1b1bddd959607a1b60448201526064016103f6565b6001600160a01b0380841660009081526003602052604090205416806106be5760405162461bcd60e51b815260206004820152600d60248201526c139bc81bdc9858db19481cd95d609a1b60448201526064016103f6565b6000816001600160a01b031663feaf968c6040518163ffffffff1660e01b815260040160a060405180830381865afa1580156106fe573d6000803e3d6000fd5b505050506040513d601f19601f820116820180604052508101906107229190610fc1565b505050915050600081136107685760405162461bcd60e51b815260206004820152600d60248201526c496e76616c696420707269636560981b60448201526064016103f6565b6000610779826402540be400611027565b90508061078e86670de0b6b3a7640000611027565b610798919061103e565b9695505050505050565b6000828152602081905260409020600101546107bd81610b50565b6103858383610be1565b6107cf610c46565b6001600160a01b03821660009081526002602052604090205460ff1661082b5760405162461bcd60e51b8152602060048201526011602482015270151bdad95b881b9bdd08185b1b1bddd959607a1b60448201526064016103f6565b600081116108705760405162461bcd60e51b81526020600482015260126024820152710416d6f756e74206d757374206265203e20360741b60448201526064016103f6565b604051636eb1769f60e11b815233600482015230602482015281906001600160a01b0384169063dd62ed3e90604401602060405180830381865afa1580156108bc573d6000803e3d6000fd5b505050506040513d601f19601f820116820180604052508101906108e09190611060565b10156109275760405162461bcd60e51b8152602060048201526016602482015275496e73756666696369656e7420616c6c6f77616e636560501b60448201526064016103f6565b6040516323b872dd60e01b8152336004820152306024820152604481018290526001600160a01b038316906323b872dd906064016020604051808303816000875af115801561097a573d6000803e3d6000fd5b505050506040513d601f19601f8201168201806040525081019061099e9190611079565b6109e25760405162461bcd60e51b8152602060048201526015602482015274151bdad95b881d1c985b9cd9995c8819985a5b1959605a1b60448201526064016103f6565b6040518181526001600160a01b0383169033907f991b8e8a2e2b8ff515f7045174eeb52eb4868e69c5bb4259da6146a93c77574d9060200160405180910390a36000610a2e838361060a565b905080471015610a715760405162461bcd60e51b815260206004820152600e60248201526d2737ba1032b737bab3b41021272160911b60448201526064016103f6565b604051600090339083908381818185875af1925050503d8060008114610ab3576040519150601f19603f3d011682016040523d82523d6000602084013e610ab8565b606091505b5050905080610aff5760405162461bcd60e51b8152602060048201526013602482015272109390881d1c985b9cd9995c8819985a5b1959606a1b60448201526064016103f6565b60408051848152602081018490526001600160a01b0386169133917fa078c4190abe07940190effc1846be0ccf03ad6007bc9e93f9697d0b460befbb910160405180910390a3505061040960018055565b610b5a8133610c9f565b50565b610b6782826105e1565b610409576000828152602081815260408083206001600160a01b03851684529091529020805460ff19166001179055610b9d3390565b6001600160a01b0316816001600160a01b0316837f2f8788117e7eff1d82e926ec794901d17c78024a50270940304540a733656f0d60405160405180910390a45050565b610beb82826105e1565b15610409576000828152602081815260408083206001600160a01b0385168085529252808320805460ff1916905551339285917ff6391f5c32d9c69d2a47ea670b442974b53935d1edc7fd64eb21e047a839171b9190a45050565b600260015403610c985760405162461bcd60e51b815260206004820152601f60248201527f5265656e7472616e637947756172643a207265656e7472616e742063616c6c0060448201526064016103f6565b6002600155565b610ca982826105e1565b61040957610cb681610cf8565b610cc1836020610d0a565b604051602001610cd29291906110bf565b60408051601f198184030181529082905262461bcd60e51b82526103f691600401611134565b606061035a6001600160a01b03831660145b60606000610d19836002611027565b610d24906002611167565b67ffffffffffffffff811115610d3c57610d3c61117a565b6040519080825280601f01601f191660200182016040528015610d66576020820181803683370190505b509050600360fc1b81600081518110610d8157610d81611190565b60200101906001600160f81b031916908160001a905350600f60fb1b81600181518110610db057610db0611190565b60200101906001600160f81b031916908160001a9053506000610dd4846002611027565b610ddf906001611167565b90505b6001811115610e57576f181899199a1a9b1b9c1cb0b131b232b360811b85600f1660108110610e1357610e13611190565b1a60f81b828281518110610e2957610e29611190565b60200101906001600160f81b031916908160001a90535060049490941c93610e50816111a6565b9050610de2565b508315610ea65760405162461bcd60e51b815260206004820181905260248201527f537472696e67733a20686578206c656e67746820696e73756666696369656e7460448201526064016103f6565b9392505050565b600060208284031215610ebf57600080fd5b81356001600160e01b031981168114610ea657600080fd5b600060208284031215610ee957600080fd5b5035919050565b80356001600160a01b0381168114610f0757600080fd5b919050565b60008060408385031215610f1f57600080fd5b82359150610f2f60208401610ef0565b90509250929050565b600060208284031215610f4a57600080fd5b610ea682610ef0565b60008060408385031215610f6657600080fd5b610f6f83610ef0565b9150610f2f60208401610ef0565b60008060408385031215610f9057600080fd5b610f9983610ef0565b946020939093013593505050565b805169ffffffffffffffffffff81168114610f0757600080fd5b600080600080600060a08688031215610fd957600080fd5b610fe286610fa7565b945060208601519350604086015192506060860151915061100560808701610fa7565b90509295509295909350565b634e487b7160e01b600052601160045260246000fd5b808202811582820484141761035a5761035a611011565b60008261105b57634e487b7160e01b600052601260045260246000fd5b500490565b60006020828403121561107257600080fd5b5051919050565b60006020828403121561108b57600080fd5b81518015158114610ea657600080fd5b60005b838110156110b657818101518382015260200161109e565b50506000910152565b7f416363657373436f6e74726f6c3a206163636f756e74200000000000000000008152600083516110f781601785016020880161109b565b7001034b99036b4b9b9b4b733903937b6329607d1b601791840191820152835161112881602884016020880161109b565b01602801949350505050565b602081526000825180602084015261115381604085016020870161109b565b601f01601f19169190910160400192915050565b8082018082111561035a5761035a611011565b634e487b7160e01b600052604160045260246000fd5b634e487b7160e01b600052603260045260246000fd5b6000816111b5576111b5611011565b50600019019056fea26469706673582212208fb30a00944ef7bc330179f5639782edc2e0484516c8be5d22ac00ab37895f9b64736f6c63430008140033",
  "linkReferences": {},
  "deployedLinkReferences": {}
}